:020000040800F2
:10200000B0170020ED2100086B9700080F7800083A
:10201000FF8B0008C12A000859B00008000000002A
:102020000000000000000000000000001D9A0008F1
:10203000212B000800000000E599000855A80008C1
:1020400007220008072200080722000807220008CC
:1020500007220008072200080722000807220008BC
:10206000072200080722000807220008C32A0008E8
:1020700007220008CF2A00080722000807220008CC
:1020800007220008000000000722000807220008BD
:1020900007220008BB2E00080722000807220008BC
:1020A00007220008DDA80008072200080722000810
:1020B00007220008072200080722000867780008A6
:1020C00011780008072200080722000807220008EC
:1020D000072200080722000807220008072200083C
:1020E000072200080722000807220008072200082C
:1020F000072200080722000807220008000000004D
:10210000000000000722000800000000072200086D
:10211000072200080000000007220008072200082C
:1021200007220008072200080722000807220008EB
:10213000072200080000000000000000072200083D
:10214000072200080722000800000000000000002D
:10215000000000000000000000000000000000007F
:10216000000000000000000000000000072200083E
:10217000072200080000000000000000000000002E
:10218000000000000722000800000000000000001E
:10219000000000000000000000000000000000003F
:1021A00000000000000000000722000807220008CD
:1021B000072200080722000807220008000000008C
:1021C00000000000072200080000000000000000DE
:1021D0000722000807220008DFF80CD000F078FA88
:1021E000004800479DBC0008B01700200648804703
:1021F00006480047FEE7FEE7FEE7FEE7FEE7FEE7EC
:10220000FEE7FEE7FEE7FEE7CBA80008D9210008BD
:1022100040EA01039B0703D009E008C9121F08C068
:10222000042AFAD203E011F8013B00F8013B521EE8
:10223000F9D27047D2B201E000F8012B491EFBD25F
:1022400070470022F6E710B513460A4604461946C1
:10225000FFF7F0FF204610BD10B54843044610F0CC
:1022600021FA002805D00021002C02D0641E01555F
:10227000FAE710BD00F0004230F000400AD0C10D76
:1022800001F56071C0F3160042EA0151C20840072F
:102290001143704700200146704730B50B46014698
:1022A00000202022012409E021FA02F59D4205D3F5
:1022B00003FA02F5491B04FA02F52844151EA2F19F
:1022C0000102F1DC30BD2DE9F05F054600209246A9
:1022D0009B4688460646814640241BE028464146E8
:1022E0004746224600F015FA53465A46C01A914115
:1022F00010D311461846224600F0FCF92D1A67EB60
:1023000001084F4622460120002100F0F3F917EBA7
:1023100000094E41201EA4F10104DFDC484631468D
:102320002A464346BDE8F09F2DE9FE4F804681EAEC
:102330000300C00F0C46009021F0004123F000453F
:10234000B8EB0200A94105D24046214690461C4602
:102350000B46024623F00040104347D0270DC7F339
:102360000A00C3F30A510290401A019040286BDA28
:10237000C3F3130040F4801B0098924620B1002361
:10238000D2EB030A63EB0B0B01985946C0F14002F4
:10239000504600F0AFF906460D4650465946019AA0
:1023A00000F0C7F910EB08006141002487EA1152E0
:1023B00084EAE7731A4340D0009A62B3019A012A73
:1023C0004FEA075215DC001B61EB02014FF000429F
:1023D00002EA0752CDE90042001C41F58011324665
:1023E0002B4600F0C7F903B0BDE8F08F4046214608
:1023F000F9E7001B61EB0201001C41F58013001896
:102400005B412018A2F5001747EB030140EAD570A5
:10241000B6196D4111E06D084FEA360645EAC07500
:102420004FEA0752001B61EB0201001C41F58011CD
:1024300049084FEA30000019514132462B4603B09B
:10244000BDE8F04F00F087B900980122400000235A
:10245000D0EB020263EBE073009821464FEAE07490
:10246000B8EB000061EB0401E9E783F000435BE7B0
:1024700081F0004158E72DE9FE4F81EA030404F0A2
:10248000004421F0004100944FF0000B23F0004382
:1024900050EA01045ED052EA03045BD0C3F30A544D
:1024A000C1F30A552C44A4F2F3340194A0FB025466
:1024B000C1F3130141F48011C3F3130343F48013F8
:1024C00001FB024400FB034E840A970A44EA81544C
:1024D00047EA8357A4FB076802958D0A05FB078529
:1024E0004FEA932C04FB0C542705029D4FEA065833
:1024F00047EA1637B5EB08056EEB070C870E920E10
:1025000047EA811742EA8312A7FB0201B6EB0B01EF
:1025100064EB00042B0D43EA0C335E1844EB1C50B3
:10252000DA465146E7FB0201C5F313044FEA0B33C9
:1025300043EA14534FEA0432019C43EA0603A4F130
:102540000C040294009CCDE900B400F013F903B030
:10255000BDE8F08F00200146F9E72DE9F04D81EA52
:10256000030404F0004B21F0004514464FF0000A2C
:1025700023F0004150EA050220D054EA01021DD0A8
:10258000C5F30A570246C5F31303C1F31300C1F3A1
:102590000A5640F4801543F48013A7EB0608101B7D
:1025A000D64608F2FD3873EB050002D308F10108A6
:1025B00001E092185B41B8F1000F03DA00200146F8
:1025C000BDE8F08D00204FF48011064684460EE0F1
:1025D000171B73EB050705D3121B63EB05030643BB
:1025E0004CEA010C49084FEA300092185B4150EA6E
:1025F0000107EDD152EA030012D082EA040083EA17
:102600000501084305D0101BAB4106D2012200236F
:1026100006E000224FF0004302E06FF00102531089
:102620001AEB06004CEB085110EB0A0041EB0B01D2
:10263000BDE8F04D00F08FB8C1F30A52C1F31301A9
:1026400040F2FF3341F480119A4202DA0020014641
:10265000704740F233439A42A2F2334202DC5242C4
:1026600000F057B800F046B830B5041E71F1000410
:1026700004DB4FF00044404264EB0101141E73F18F
:10268000000405DB1C464FF00043524263EB040399
:10269000994208BF904230BD002801DBC0F10040E4
:1026A000002901DBC1F10041814202D24FF000401C
:1026B00004E04FF0005001D14FF0C040EFF3008133
:1026C00021F07F4141EA000181F30088704700005A
:1026D000064C074D06E0E06840F0010394E807006F
:1026E00098471034AC42F6D3FFF77AFDBC97010847
:1026F000DC970108202A04DB203A00FA02F10020CE
:1027000070479140C2F1200320FA03F3194390402F
:102710007047202A04DB203A21FA02F0002170479A
:1027200021FA02F3D040C2F1200291400843194639
:102730007047202A06DBCB17203A41FA02F043EA21
:10274000E07306E041FA02F3D040C2F1200291406A
:1027500008431946704710B5141E73F1000408DAD7
:10276000401C41F1000192185B411A4301D120F055
:10277000010010BD2DE9F04D92469B4611B1B1FA12
:1027800081F202E0B0FA80F220329046FFF7B2FF09
:1027900004460F4640EA0A0041EA0B0153465A46F6
:1027A000084313D0114653EA010019D0C8F1400282
:1027B0005046FFF7AEFF05460E4650465946424684
:1027C000FFF798FF084305D0012004E02046394672
:1027D000BDE8F08D0020054346EAE0762C43374300
:1027E0000A986305E40AA0EB08000022FD0A44EA07
:1027F00047540A3002D500200146E9E701051019C7
:102800006941DDE9084500196941BDE8F04DA2E7DD
:1028100070B58C1810F8015B15F0070301D110F8A2
:10282000013B2A1106D110F8012B03E010F8016BCF
:1028300001F8016B5B1EF9D12B0705D40023521E52
:102840000DD401F8013BFAE710F8013BCB1A921CBA
:1028500003E013F8015B01F8015B521EF9D5A142B8
:10286000D8D3002070BD70B50446206882688368A4
:10287000DB0843EA9202D20768D0C26812F0007FF8
:1028800019D0627F012A16D1227F012A13D1016853
:1028900011F0400F0BD100224FF0FF31CAF240324D
:1028A0000131914248D2036813F0400FF8D0402123
:1028B0000160012103E0022901D1022114E08268B4
:1028C00012F0040F0CD0826812F0020F08D14FF6FC
:1028D000C0738268C7F6FF731A4042F0100282602C
:1028E000012901D1042617E0826812F0080F0CD0EC
:1028F000826812F0020F08D14FF6C0738268C7F6E3
:10290000FF731A4042F0200282600426022908BFA9
:102910000826032908BF0C2603F034FA0546206870
:102920008068304212D003F02DFA411B206806293E
:10293000F6D381683142F3D0E06D40F01000E065DD
:10294000206E40F001002066012070BD002070BDA7
:102950000146886AC36DC26D13F0500F07D0D206CE
:1029600048BF00F018BE406D426B0846104742F465
:102970000071C16501680B68CA6813F0080F0FD1B8
:1029800091070BD4C16D21F48071C165C16D11F443
:10299000805F02BFC16D41F00101C16500F04FBD14
:1029A00012F4406F18BF00F04ABDC96811F4005F0F
:1029B000E8D0F3E7806AC16D41F04001C165016E66
:1029C00041F00401016600F0E6BD806A00F038BD08
:1029D000B0B50446002021688B688A6813F0020FA6
:1029E00030D112F0010208BFB0BD886800F00D00C0
:1029F00001281CD14FF6C0728868C7F6FF721040DC
:102A000040F0020088600320086003F0BBF905462F
:102A10002068806810F0010F13D003F0B3F9411B58
:102A200020680329F5D3816811F0010FF1D0E06D22
:102A300040F01000E065206E40F0010020660120AB
:102A4000B0BD0020B0BD70B504462068816811F0AB
:102A5000010F33D14FF6C0768168C7F6FF7606F1D5
:102A60007F02114209D0E06D40F01000E065206E59
:102A700040F001002066012070BD8168314041F0C6
:102A80000101816003F07EF905462068016811F0BC
:102A9000010F13D1816811F0010F04D18168314019
:102AA00041F00101816003F06DF9411B20680329A9
:102AB000ECD3016811F0010FE8D1D4E7002070BD1C
:102AC000FEE740F67800C2F2000001F087B840F659
:102AD000D800C2F2000001F081B810B5D0E913CEE1
:102AE0000124CCF804E0D0F854C0BCF1000F1CBFA6
:102AF000D0E916CECCF804E0D0E910CE0EF01F0ECF
:102B000004FA0EF4CCF8044004686360806810286E
:102B1000084608BF1046A06008BF0A46E26010BD24
:102B200070472DE9F04F8FB08846064602A8322143
:102B3000FFF787FB40F650740121C2F200042046E3
:102B400009F0D6FF42F66C212046C0F6010109F0DB
:102B5000D5FF0DF1600A42F20F709AE81006844228
:102B600002DD6FF0080514E0B4F57A7F02DB6FF048
:102B700007050EE0632C02DD6FF0040509E0092C67
:102B800002DD6FF0030504E0B4F1FF3F5DDD4FF0BF
:102B9000FF3542F6C21202AF32212346C0F60102CF
:102BA00038460EF041FEA8193B46C1B208F10900B3
:102BB00082B240F65070C2F2000009F01DFFA4EB93
:102BC0000901AAEB090001EB4101C90091FBF0F0FA
:102BD000182801DD3F2505E0002819DB00F1270555
:102BE0000D2817DB40F6507833264FF48037212428
:102BF000C2F20008B8B2B1B2A2B2012300904046BE
:102C000009F025FD0136013C0237AE42F2DB19E046
:102C1000272503E0332D18BF0C2813D040F650743D
:102C200033260027C2F20004B8B2B1B201230090EB
:102C3000A6F1120082B2204609F009FD013E0237DA
:102C4000AE42F1DC0FB0BDE8F08F4DF6F100CFF6EB
:102C5000FF70844202DA6FF00B0B15E04FF619405B
:102C6000CFF6FF70844202DA6FF0080B0CE014F12B
:102C7000630F02DA6FF0070B06E06FF0030B14F13D
:102C8000090FB8BF6FF0040B42F6C212634202A8EC
:102C90003221C0F601020EF0C7FD40F6507747F62C
:102CA000A861C2F20007C0F60101384609F026FF0C
:102CB0005E44022042F61D1350FA86F108F1090025
:102CC000C0F6010385B238462A4609F095FE42F661
:102CD0006C213846C0F6010109F010FF05202A4694
:102CE00002AB50FA86F1384667E72DE9F0418EB025
:102CF00001AF0C46054632213846FFF7A2FA40F6EE
:102D000050760121C2F20006304609F0F1FE42F68B
:102D10006C213046C0F6010109F0F0FE149E42F627
:102D2000C21238463221C0F6010233460EF07CFD55
:102D3000002E314648BF7142DDE91578B1F57A7F42
:102D400002DB6FF0070009E0632902DD6FF0040089
:102D500004E0FF200929C8BF6FF00300284401AB3D
:102D6000C1B204F1090082B240F65070C2F2000014
:102D700009F042FEF11BA8EB070001EB4101C9007D
:102D800091FBF0F0182801DD252505E0002819DB6E
:102D900000F10D050D2817DB40F6507819264FF489
:102DA00080372124C2F20008B8B2B1B2A2B2012326
:102DB0000090404609F04BFC0136013C0237AE4220
:102DC000F2DB19E00D2503E0192D18BF0C2813D0F4
:102DD00040F6507419260027C2F20004B8B2B1B20E
:102DE0000123009006F1080082B2204609F02FFC72
:102DF000013E0237AE42F1DC0EB0BDE8F08180B595
:102E000000F00FF840F2267040F21671C2F2000096
:102E1000C2F20001408800EE100A0880B8EE400AB5
:102E200080BD2DE9F04140F2FA6848F2210040F6F9
:102E30009C1440F2F6651827102648F22101C2F2D0
:102E40000005C2F20008CFF6FF70C2F20004C4F61B
:102E50000007C8F8000020462A463E613E6106F0A1
:102E6000C2FDB8F80210AA1C204606F0BCFD3E6068
:102E70003E6040F226716888C2F200010880C0F30B
:102E80004D004880BDE8F08140F226700021C2F27A
:102E90000000016018201021C4F60000016040F617
:102EA0009C10C2F200000068016841F0400101601E
:102EB0007047EFF3108072B6FEE740F63810C2F2AA
:102EC000000001F08BB940F2B41042F20001C2F2EE
:102ED0000000C4F20201027F032A03D0022A15D0A7
:102EE000012A1FD10B6802F0FE02022A23F40073AC
:102EF0000B600B6843F400630B600B6823F4006302
:102F00000B600B6843F400730B600BD10A6842F44A
:102F100080520A600A6822F480520A600A6842F409
:102F200080620A6000210177704770B5044602F0A4
:102F300029FF42F210060546C4F20206306810F47A
:102F4000803F06D002F01EFF401BA042F6D90320AE
:102F500015E030684CF2FA31084009D040F2B41163
:102F6000C2F200014A6802434A603060012006E074
:102F7000306810F0010F1CBF012030600020C0B28B
:102F800070BD40F63830C2F2000000887047B0B51E
:102F900082B0044600200D46019094F858000128A4
:102FA00001D1022040E0012084F858002046FFF7BC
:102FB0000FFDE16D10B141F0100131E041F202105E
:102FC0004FF6C07221EA0000C3F6FF7240F0020023
:102FD000E06520688168114005F08042114341F0AE
:102FE000004181608168B1F1FF3F0DDC4DF6026167
:102FF000C0F20401019A01320192019A8A4209D277
:103000008268B2F1FF3FF5DDE16D012060F301015F
:10301000002005E0E06D20F0120040F010010120DA
:10302000002284F85820E16502B0B0BD90F8582025
:10303000012A01D1022143E080B582B0012280F84B
:1030400058200022019200920268B2F1A04F2CD1C8
:1030500040F2080EC5F2000EDEF80031DEF8002066
:103060001A43520721D4D1F800C0DEF8002322F41D
:103070006043BCF1000F25D04A681A4390F83830FD
:1030800042EA4332CEF80023DEF80020DEF80031B9
:103090001A43D20726D1DEF80023896840F61F7351
:1030A0009A4341EA0C0111431AE0C16D41F020013D
:1030B000C1650121002280F8582002B0BDE880409F
:1030C000C8B27047CEF80033DEF80010DEF80021F9
:1030D0001143C90706D1DEF8001340F61F72914371
:1030E000CEF800130021E5E7F0B581B00022009290
:1030F00090F85820012A01D102219DE1012280F897
:1031000058200768BB6813F0040F36D1D1E90035A9
:103110001F2205F01F04C5F3012507EB8505A2401A
:103120002E6BC3F38463A34026EA02021A432A6388
:10313000BA68BB68DB0843EA9202D20740F0B3806A
:103140000A68D1F808E007F114030725C2F34066C6
:10315000BEF1004F53F82660C2F3045405FA04F59B
:1031600026EA050C4FF0040505EAD2550BD143F8C9
:1031700005C01A6842F000430DE0C16D41F0200126
:10318000C165012155E10EFA04F242EA0C025A51DE
:103190001A6822F000437B61D1E9043CFC68042BEF
:1031A00054D13A6E4FF6FF7C3A6E0B68C0F2070CB2
:1031B000C3F3846693FAA3F513EA0C0F18BFB5FAAC
:1031C00085F6C2F38462B24204D13A6E22F0004224
:1031D0003A660B687A6E93FAA3F613EA0C0FC3F300
:1031E000846218BFB6FA86F27E6EC6F38466964293
:1031F00004D17A6E22F000427A660B68BA6E93FAB6
:10320000A3F613EA0C0FC3F3846218BFB6FA86F272
:10321000BE6EC6F38466964204D1BA6E22F00042B6
:10322000BA660B68FA6E93FAA3F613EA0C0FC3F3AF
:10323000846218BFB6FA86F2FB6EC3F384639342CE
:1032400002BFFA6E22F00042FA662CE007F1600637
:103250004FF20002D1F800E056F82350C0F2FF32DE
:103260002A40062505EA94040CFA04F50EF0F84409
:1032700025432A4342F0004246F823200A698B691D
:1032800056F8225025F080752B4346F822300B6902
:103290000A7F56F82350012A25F0007508BF45F033
:1032A000007546F82350BA6812F0010F50D10C682F
:1032B0000026CA68C4F27F062346B2426FF3DF439A
:1032C0001ED1D7F8B020002B42EA0302C7F8B02085
:1032D00094FAA4F2B2FA82FC624608BFA20EA40ECF
:1032E000013202F01E02092A10D8002B0CBF621C0A
:1032F0000CF101024FF0000C02F01F04234610E015
:10330000D7F8B0209A43C7F8B02021E0002B14BFB3
:103310000CF10102621C4FF0007C02F01F03A3F1CC
:103320000A04012207269A4004EB44034CEA0353A3
:103330001A43C2F30453C2F340628D6807EB820262
:103340009E40546905FA03F324EA060633435361A9
:103350000C680021C8F208010C4269D040F2083E16
:103360000021C5F2000ECCF22131DEF800308C4293
:1033700003F0E07C04D01021C9F2C0018C422BD1B3
:10338000B7F1A04F4FF0000108BF13F4000250D175
:10339000DEF8001042F66352C0F23E5221F0E071B6
:1033A00041EA0C0141F40001CEF8001040F2E801BE
:1033B000C2F2000109688909A1FB021291090C22DD
:1033C00001EB410102EB810101E00099013900911B
:1033D00000990029F9D12BE00021CCF252718C42E6
:1033E00008BF13F0807115D0AEF50272002197422C
:1033F0001FD00022CCF68432944208BF13F480021E
:1034000017D1DEF8001021F0E07141EA0C0141F41F
:1034100080010BE0AEF502718F4209D0DEF800109A
:1034200021F0E07141EA0C0141F08071CEF800100A
:103430000021002280F85820C8B201B0F0BD7047CA
:103440007047B0B50446002C00F0A280E06D032167
:1034500040F00200E0652046FFF705FA05462068C7
:10346000002DC16841F40011C16007D12046FFF76B
:10347000AFFA054615B901200025E065206840F245
:10348000FF72416891434160026004228168C8F282
:10349000000221F0A0418160816841F0005181600B
:1034A000C168114040F62002C160CEF28202C168BC
:1034B00002F1100341F00041C16001696FF30A019C
:1034C0000161416901F080414161816901F0784108
:1034D0008161016A01F0F0210162416A21F0FF116E
:1034E0004162816A21F0FF118162016B1940016321
:1034F000416B11404163816B114040F2DF72816387
:10350000C16B91434FF20002C163C0F2FF32016E02
:1035100011400166416E11404166816E1140816625
:10352000C16E1140C166D0F8A0106FF31201C0F84F
:10353000A010D0F8A4106FF31201C0F8A410D0F8B6
:10354000B0106FF31201C0F8B010D0F8B41021F031
:103550007F11C0F8B4100820C5F200000168D0F84F
:1035600000211143C9070BD141F2E002D0F800134A
:10357000CFF600621140C0F80013204600F00DF9AC
:1035800000202066C4E9190084F85800E06500E0D6
:1035900001252846B0BD7047B0B582B00446002072
:1035A000002C019048D0E06D30B9204600F00DF9B4
:1035B000002084F8580020662168886810F0005FB9
:1035C00006D04FF6C0728868C5F6FF72104088605A
:1035D000886810F0805F21D14FF6C0728868C5F608
:1035E000FF7202F18052104042F6635240F0805068
:1035F000C0F23E52886040F2E800C2F2000000686B
:103600008009A0FB02029009022202EB400001E0C7
:1036100001980138019001980028F9D1886810F0CC
:10362000805F0BD1E06D40F01000E065206E40F04F
:1036300001002066012002E00120ACE000208A6841
:10364000C2F38002E36D03F010031A43E26D03D06E
:1036500042F0100101209DE022F4817242F002024A
:10366000E2658A6812F0010F12D140F2080CC5F22F
:10367000000CDCF80030DCF800211A43D20707D137
:103680006268DCF8003323F47C131A43CCF800237F
:10369000627FE36B43EA423CD4E9023242EA0C0225
:1036A0001A4394F8243042EA0342012B07D1002345
:1036B000D4F828C0CFF6FE7303EB4C431A43E36AF9
:1036C00023B103F478731A43236B1A4344F20703BC
:1036D000D1F80CC0CFF6F07303EA0C031A43CA60AA
:1036E0000A69636B22F040621A430A618A688B6838
:1036F000DB0843EA9202D2073ED194F81CC094F84A
:1037000038E0CA6844F202039A434FEA4E0343EAA0
:103710008C331A43CA6022690B6952B143F4803377
:103720000B6143F6FF73D1F8C0C02CEA03031A43C0
:1037300007E023F4803243F6FF730A61D1F8C0201A
:103740009A43C1F8C02094F840300A69012B10D187
:1037500040F2FD7322EA030CD4E91132D4E913E5F7
:1037600043EA0C031A4342EA0E022A4342F00102E2
:1037700001E022F001020A6163690A6B22F00F0284
:10378000012B02BF236A013B1A430A630122E16D48
:1037900062F30101E16502B0B0BD10B504462068D6
:1037A000B0F1A04F18BF10BD41F24C00C4F20200AE
:1037B000016821F4005101604FF090400F2102F0A8
:1037C0006CF9606D00F08BF910BD70B598B00446CF
:1037D00013A81421FEF735FD02A84421FEF731FDA0
:1037E0002068B0F1A04F4CD14FF0005011904FF431
:1037F0000040029002A802F0FDFB08B1FFF759FB60
:1038000041F24C000026C4F20200016841F400516C
:103810000160016801F4005101910199016841F0D2
:103820000101016013A9006800F0010001900198F6
:10383000032014900F2013904FF09040159602F043
:10384000B3F940F678050821052080224FF48073F3
:103850004FF4806C4FF0200EC2F20005C4F202015A
:10386000C5E9001005F11000C5E9026680E80C50BA
:1038700028462E6200F007FA08B1FFF71AFB6565CB
:10388000AC6218B070BD2DE9F04140F2001704465B
:103890000E469046C5F20007D7F8080221688968ED
:1038A00011F0040F03D194F85810012902D102201D
:1038B000BDE8F08100F01F050120092D84F85800B3
:1038C00059D8A84040F22121084254D02046FFF7A1
:1038D000BAF820B1002184F85810BDE8F0812168C1
:1038E000E06D40F601729043B94240F48070E065AB
:1038F000084608BF4FF0A0400DB1884203D1E06DEB
:1039000020F48010E065E06D42F6CB1342F65117CB
:1039100042F6B5150022C0F60003C0F60007C0F657
:10392000000510F4805F4FF000001CBF206E20F0F7
:1039300006002066606DC0E90B731C2345630B60B5
:1039400084F8582043464A6842F010024A60CA6828
:1039500042F00102CA604031324600F031FA21687B
:103960004FF6C073C7F6FF738A681A4042F004022C
:103970008A60BDE8F081002084F858000120BDE88D
:10398000F081B0B5044694F85800012801D1022511
:1039900033E00120032184F858002046FEF763FF3E
:1039A00005463DBB2068C16821F00101C160606D22
:1039B00090F82510022908D100F021F8054625B11C
:1039C000E06D40F04000E06500E0002520684168BF
:1039D00021F0100141602046FEF7FAFF55B900289A
:1039E000054607D1E06D41F201110025884340F002
:1039F0000100E065002084F858002846B0BD90F82A
:103A00002510022923D101680A6822F00E020A60FB
:103A1000826C136823F48073136001230A6822F018
:103A200001020A60D0E9101202F01F0203FA02F24A
:103A30004A60D0E913124A60416D31B10A6822F43C
:103A400080720A60D0E916124A60002102E0042167
:103A5000C1630121002280F82420012280F8252062
:103A60000846704790F8251002292ED101680A688F
:103A700022F00E020A600A6822F001020A60816CDC
:103A80000A6822F480720A60D0E9101202F01F0363
:103A9000012202FA03F34B60D0E913134B60416D2E
:103AA00031B10B6823F480730B60D0E916134B60BF
:103AB000002180F8241080F82520826B6AB180B53F
:103AC00090470021BDE8804007E00421C163002148
:103AD00080F82410012180F82510084670474FF027
:103AE000010C002877D0F0B5036840F2000E4CF6C8
:103AF000CD44C4F2020ECCF6CC4419680EF58162B6
:103B00000EF58067934221F0010119604FF6F831FC
:103B1000CBF6FD7138BF01F58061934219443CBF7B
:103B20000027C4F202079342A1FB04154FF01C01C9
:103B300001EA95010CFA01F64FF6FC71C3F6FF712C
:103B400001EA95054FF00001C0E9107519607E602B
:103B50000EF50866C6640EF5026638BF0EF50066FF
:103B6000AA1982646FF0070252FA83F2A2FB0423BF
:103B7000C3F304120CFA02F340F68402C4F2020208
:103B80000365A951136043685F1E042F14D24FF0E0
:103B9000FF36012402F1BC0756FA83F302EB8306D9
:103BA00003F01F0306F17C0504FA03F3C0E915577F
:103BB000C365F167C2F8C030C163C0E91511C165C2
:103BC000C0E90B11C0E90D1180F8241080F8251010
:103BD000BDE8F04000E0012108467047B0B5D0E9EB
:103BE00010C4DCF80010026804F01F0E136813F014
:103BF000040F1EBF042404FA0EF414EA010519D1BF
:103C00009C0723D5022404FA0EF414EA01051DD002
:103C1000116811F0200F06D1116821F00A0111601E
:103C2000012180F825100021CCF8044080F82410F0
:103C3000C16A23E0116811F0200F02BF116821F062
:103C400004011160CCF80440016B17E01B0719D583
:103C5000082303FA0EF3194008BFB0BD116821F024
:103C60000E011160012101FA0EF2CCF804200022AD
:103C7000C16380F8242080F82510416B11B1BDE8A4
:103C8000B0400847B0BD0121002800F097802DE921
:103C9000F04F0222002347F6F07600F1180C80F86E
:103CA0002520C4F20203026803F5816803F58064ED
:103CB0004CF6CD43CCF6CC4342453CBF0024C4F285
:103CC000020404644FF6F834CBF6FD7438BF04F5F3
:103CD000806442451444A4FB03454FF6FC74C3F6CC
:103CE000FF7404EA950AC0F844A01468D0E902976A
:103CF00024EA060BD0E904E49CE860104BEA0903CF
:103D000043EA070340F2000743EA0E03C4F2020746
:103D100043EA040343EA050343EA060343EA0C03C8
:103D200040F6840C136007F50863C4F2020CC36408
:103D300007F5026338BF07F500636FF00707B9F5B1
:103D4000804F57FA82F24CF6CD475344CCF6CC471D
:103D50008364A2FB0727C7F3041201FA02F101658D
:103D600005D1002242601A60CCF8001018E04268C9
:103D7000D4B21C60CCF80010511E002203290FD8C9
:103D8000611E0CF1BC040CEB810701F01F0147F828
:103D90007C2F012202FA01F33A46CCF8C03001E050
:103DA000002400230021C163C0E915240122C3655A
:103DB00080F8241080F82520BDE8F04F08467047B1
:103DC00010B5044694F82400012820D0012084F87E
:103DD000240094F82500012816D1022084F825003B
:103DE0000020E063D4F800C0DCF8000020F00100FF
:103DF000CCF800002046FEF770FE2068226B0168B8
:103E00003AB141F00E010AE0002084F824000220BB
:103E10001AE021F004010160016841F00A0101602B
:103E2000A16C0A6812F4803F1EBF0A6842F48072D7
:103E30000A60616D19B10A6842F480720A60016813
:103E400041F0010101600020C0B210BDB0B50446D0
:103E500001F098FF054640F20C40611CC2F20000E0
:103E6000006818BF044401F08DFF401BA042FAD344
:103E7000B0BD90F85C30013BDBB2012B71D810B5BE
:103E8000006811F0070CD0F858E00EF0010300D0E4
:103E90001BB311F0380F02D01EF002041DD011F434
:103EA000E07F02D01EF0040417D011F4F05F02D0BE
:103EB0001EF0080411D011F4604F02D01EF010045F
:103EC0000BD011F4403F02D01EF0200405D011F4B5
:103ED0007C0F06D01EF0400403D1C46D44F00104F1
:103EE000C46513B1BCF1000F23D111F0380F18BF16
:103EF0001EF002031DD111F4E07F18BF1EF0040371
:103F000017D111F4F05F18BF1EF0080311D111F49E
:103F1000604F18BF1EF010030BD111F4403F18BFC3
:103F20001EF0200305D111F47C0F18BF1EF04003D2
:103F300003D0C36D43F00203C3650B06BDE8104018
:103F400042BFD0F8DC301343C0F8DC30CB0542BFB1
:103F5000D0F8E0301A43C0F8E02000F1540200200D
:103F600003E000F16002012002211368194311608F
:103F700070472DE9F04790F85C30022B46D1D0F81D
:103F800000E0DEF8C43013F4001F43D1DEF8C4C0F3
:103F90000D69D1E90043D1E902683543002B45EAB8
:103FA000040646F0804608BF45EA8446D1E9059AF2
:103FB000436DCCF3014CD1E907740CEBCC0547EA17
:103FC000046443F8356003EBC50344EA0A0444EA99
:103FD000090444EA08045C60CC68B4F5803F0CD363
:103FE00042F25C7508330024C0F6010516591E51D3
:103FF0000434CE89AE5DB442F8D3012101FA0CF14C
:10400000CEF8CC1081650020BDE8F087016E41F04C
:10401000080102E0016E41F4007101660120BDE873
:10402000F08780B590F85C20013AD2B2012A13D80B
:104030000A68BAB101F1040E9EE80450D1E90431D6
:10404000406C43EA4E7341EA8C7140F8323000EB29
:10405000C2004160002080BD016E41F00201016696
:10406000012080BDD1E901CED1E903234969006C6B
:10407000D20642EA8E7242EA0342114340F82C1003
:10408000002080BD90F85CC0BCF1010F10D1006829
:104090009200DDF800C042EA011150F8802F41EA99
:1040A000430141EA0C0122F03F020A43002104E0EF
:1040B00050F8601F41F00402012102600846704779
:1040C00010B504467CB1204601F08CFB2068C16D20
:1040D00021F00301C165204600F045FA002020666A
:1040E00084F85C0010BD012010BD70477047F0B52A
:1040F00090F85C50022D0CD1D0F800C040296446E5
:104100000BD154F8905F15F00F0F60D000F1480507
:104110000AE0016E41F008015CE054F8985F15F088
:104120000F0F54D000F14C0524682D68C4F3012E04
:104130000EEBCE0455F8346016F08046566055F804
:104140003460C6F38A4718BF26F06047176055F8F9
:10415000346006F00056966055F8346005EBC404F0
:1041600006F000461661A588D561656805F47025DE
:10417000D560B5F5803F666806F4801656616668BE
:1041800006F400169661E67906F07F061662666808
:104190004FEAD676566210D342F25C7504F1080CF1
:1041A0000024C0F601051CF804601E550134D689B0
:1041B000AE5DB442F7D3D0F800C00CF19C004029AA
:1041C00008BF0CF19400C0F800E00020F0BD016EC3
:1041D00041F4807101660120F0BD70472DE9F04F78
:1041E00083B004462068016D426DD0F85080D0F84D
:1041F0005490D0F850A0476D01EA0205016D02917C
:10420000416D0191016D0091D0F854B0016D11F034
:10421000400F09D0416D11F0400F05D040210165DC
:104220002046FFF7DAFF2068016D08EA090605F469
:10423000E05511F4807F0ED0416D11F4807F0AD0DB
:10424000D0F8D810D0F8E0204FF4807303652046F2
:10425000114001F009FB07EA0A0706F007062DB135
:10426000206829460565204601F000FB07F0380567
:104270002EB1206831460665204600F0DDF92DB1EB
:10428000206829460565204601F095FA2068016DF1
:1042900011F4007F0AD0416D11F4007F06D04FF475
:1042A00000710165204601F0E2FA2068016D11F00D
:1042B000800F0ED0416D11F0800F0AD0D0F8D410CD
:1042C000D0F8DC20802303652046114001F0CDFAB0
:1042D0002068016D11F4005F0AD0416D11F4005F98
:1042E00006D04FF400510165204601F0BCFA206869
:1042F000009901EA0B05016D11F4004F0AD0416DE0
:1043000011F4004F06D04FF400410165204601F042
:10431000A9FA2068DDE90121036D0A4005F4602156
:1043200013F4804F0AD0436D13F4804F06D04FF43E
:1043300080430365236E43F08003236602F4710516
:1043400019B101652046FFF7D1FE3DB12068056532
:10435000204650F8601F2943016001E004F160002D
:10436000006828B1204603B0BDE8F04FFFF7BDBE9E
:1043700003B0BDE8F08F2DE9F0410446B4B394F8E2
:104380005C0028B9002084F85D00204600F007F9A1
:104390002068816921F01001816101F0F3FC05467C
:1043A000206850F8181F11F0080F05D001F0EAFC42
:1043B000401B0B28F4D312E0016841F001010160B9
:1043C00001F0E0FC05462068024652F8181F11F083
:1043D000010F0ED101F0D6FC401B0B28F3D3206E49
:1043E000032140F0010020660120B8E00120BDE873
:1043F000F081116846F2004CC4F2000C41F0020159
:104400006045116004BF6168CCF80011217C13681D
:1044100043F04005012908BF23F040051560617C89
:10442000136823F48045012908BF43F480451560D3
:10443000A17C136843F48055012908BF23F48055FB
:1044400015601168D4F808E021F4407141EA0E01CA
:104450001160116821F0A4011160016921F01001BF
:104460000161E568ADB1012D03D1116841F004018E
:104470000EE01168022D09D041F08001032D11607A
:10448000016941F01001016103D1116841F020017F
:10449000116004F114054FF07E466FF0FF08BEF581
:1044A000407F26CD236A06EB426608EB0525A3F183
:1044B000010345EA060543EA050340F20005CFF68D
:1044C000FF7505EB014141EA0301C16110D104F11F
:1044D00024066FF00F074ACE226B07EB021208EB9F
:1044E0000627013B05EB01413B431A431143C160E1
:1044F000E16BD0F8C0201143C0F8C0100CF580412A
:104500002164D0F88020636B22F4F81242EA03425F
:10451000C0F880204AF27042C4F200026264D0F80F
:104520008030A76B23F0706343EA0763C0F88030E4
:1045300002F58C70E06402F14000A06402F5F870AE
:10454000206502F5027002F538726065002041F8BE
:10455000040B9142FBD3002001212066A06584F862
:104560005C10BDE8F08146F200410068C4F2000131
:10457000884218BF704780B541F25800C4F202006B
:10458000016821F0007101604FF090404FF4C0517C
:1045900001F083FA1520BDE8804001F057BC10B54A
:1045A00098B0044613A81421FDF74BFE02A844213D
:1045B000FDF747FE46F200412068C4F20001884240
:1045C00038D14FF000700E904FF48050029002A846
:1045D00001F010FD08B1FEF76CFC41F24C00C4F292
:1045E0000200C16841F00071C160C16801F0007152
:1045F00001910199016841F00101016013A900686E
:1046000000F0010001900198022014904FF4C05076
:1046100013900020CDE91500092017904FF090402D
:1046200001F0C2FA15200121002201F031FC152011
:1046300001F01FFC18B010BDC80708BF70472DE976
:10464000F04192B040F2D460042106AC08AAC2F254
:1046500000002346017040F638104021C2F20000ED
:10466000FFF745FD002840F0EC87089F0020CDE9CA
:104670000400CDE90200C7F30465162D00F2E187BE
:104680004FEA17283E0CDFE815F01700DC07DC07BF
:104690002E005B00DC07DC076B00DC0787002101D4
:1046A0009F00B600BB00C000C500DC07CC00E900DD
:1046B000290154019D01DD0140F2FA062D0640F268
:1046C00048714FF0804000224FF400234FF0004724
:1046D000C2F20006C2F2000136780A6245EA0626F6
:1046E00046F0FE06E8E140F641300121C2F200004A
:1046F000017040F6693040F24071C2F20000C2F22F
:104700000001007809780843000640F05B8540F21C
:104710009C10C2F200000078042800F2538540F695
:1047200035340428C2F2000403D1207808B107F020
:10473000D3F900202070012004F064FE00F042BD97
:1047400040F6353001210025C2F20000017040F62C
:104750004130C2F200000570002004F053FE04E274
:1047600040F2C5600121FE2500224FF400234FF0E6
:104770000047C2F2000066F30F25017040F2FA0014
:1047800040F24871C2F20000C2F2000106700A62F3
:104790004FF080400D6090E140F640410020C2F2B1
:1047A0000001086040F6CC41C2F20001086040F20E
:1047B0009C11C2F200010A78062A00F0AD81072A96
:1047C00040F0B1810222A8E1F0B2032880F05581C7
:1047D00040F2CC600121C2F20000017001F0D2FA77
:1047E00040F2C861C2F20001086040F2C260C2F249
:1047F0000000067046E140F2B010C2F2000069E02D
:1048000040F2B010C2F2000008E040F64230C2F2BE
:1048100000005FE040F64230C2F200000025057063
:10482000A3E1BDF8180047F24F01884240F30F8220
:1048300047F25001884200F0BA8147F251018842A4
:1048400000F0BE8147F25201884240F0D58640F226
:10485000F800ADF81010C2F20000AEE1BDF818107B
:10486000079847F232029142029000F3C28147F268
:104870000202891A232900F2A584DFE811F024003E
:104880006D0288029C02CE02A304A304A304EC02DE
:10489000A304A304A304A304A304A304A304A304E0
:1048A000A304A304A3040A032C034803A304A3043E
:1048B000A304A304A304A304A3046A038803A80312
:1048C000CA03E8030804002800F07C8440F29C70CE
:1048D000C2F200000121017000F074BC45F20040FA
:1048E000C4F20000016821F00101016003F044F905
:1048F000BDF81A000121BDF8184041EA400047F216
:104900004F018C4240F3D48147F250018C4200F0B9
:10491000608147F251018C4200F0638147F25201FD
:104920008C4240F069860A21C0B203AA009112218C
:1049300054E145F20040C4F20000016821F0010199
:10494000016003F019F90798BDF8181047F2320218
:104950000290BDF81A0091424FEA400000F36281D4
:1049600047F20202891A232900F22C84DFE811F0B1
:104970002400B603C503CB03D2032A042A042A0465
:10498000D8032A042A042A042A042A042A042A040A
:104990002A042A042A042A04DE03E403EA032A047C
:1049A0002A042A042A042A042A042A04F003F60307
:1049B000FC03020408040E040A21C0B202AA0091FA
:1049C000F021A5E345F20040C4F20000016821F0A7
:1049D0000101016003F0D0F89DF819209DF818003E
:1049E000012104AC0A2341EA4000082A214628BFDD
:1049F0000822C0B203F062F840F248714FF08042E2
:104A00004FF40023B0FA80F0C2F2000140094A607E
:104A100000228A60CB604FF00043C1E904320A6291
:104A2000C1E906225FFA88F242EA002040F2FA0267
:104A3000C2F20002127842EA056242EA00200860EF
:104A400000F0E1BB45F20040C4F20000016821F033
:104A50000101016003F090F89DF81820700073B216
:104A600044F00101C0B2072A28BF0722B3F1FF3F7B
:104A700029DD0A2303F0FAF828E040F2C260C2F20E
:104A800000000678F6B25FFA88F440F2487100221E
:104A90004FF080404FF400234FF0004744EA0626D1
:104AA00040F2FA04C2F20001C2F200040A62247861
:104AB00044EA056545EA06260E6001F1040C8CE81F
:104AC0008D0000F0B4BD0A2303F05FF840F2487196
:104AD0004FF080424FF40023B0FA80F0C2F20001A0
:104AE00040094A6000228A60CB604FF000430A62AE
:104AF000C1E90622C1E904325FFA88F242EA0020E5
:104B000040F2FA02C2F20002127842EA056242EA78
:104B10000020086000F08EBD01220A7040F6E041DE
:104B2000C2F20001087040F6C1400025C2F2000048
:104B3000057040F6C040C2F20000057040F63540F6
:104B4000C2F20000057040F63440C2F20000057069
:104B500040F24070C2F20000057040F24170C2F2B3
:104B60000000017801F0FD01017040F2FA0004AC90
:104B7000C2F200002146007806F008FB5FFA88F6D2
:104B800040F248714FF080424FF400234FF000474D
:104B900046EA0020C2F2000140F000700D6281E898
:104BA0002500C1E90337C1E90555CD612BE340F686
:104BB0009040ADF81010C2F20000007800F01BBD6C
:104BC00040F62030ADF81010C2F20000006800F08E
:104BD00012BD0A21C0B203AA00913321012300F0C3
:104BE00005BD0A21C0B203AA03230091302100F0C1
:104BF000FDBC47F25002914200F3898047F2330234
:104C0000914200F0C98247F25002914240F0DA82AC
:104C1000C0B240F690410028C2F2000118BF012046
:104C20000870CFE247F25002914200F3858047F2CC
:104C30003302914200F0BE8247F25002914240F0AE
:104C4000C1820A21C0B202AA0091332160E247F278
:104C50001601411A1F2900F20183DFE811F020003C
:104C60005D036703CD04CD04CD04CD04CD04CD0494
:104C7000CD0471038903300447045F047504CD0437
:104C8000CD04CD04CD04CD04CD04CD04CD04CD049C
:104C9000CD04A003AB03B603C303CD038B0447F2DB
:104CA0001600ADF8100040F64C40C2F200008DE74F
:104CB00047F21601611A1F2900F2EE82DFE811F0B7
:104CC0002000AB03B1039C049C049C049C049C0442
:104CD0009C049C04B703BD03C303C903CF03D503DE
:104CE0009C049C049C049C049C049C049C049C04C4
:104CF0009C049C04DB03E103E703ED03F303F903E6
:104D00000A21C0B203AA0091802100F06EBC47F2D4
:104D10005102914200F07B8247F25202914240F0F0
:104D20005182642800F24E8240F2F801C2F2000182
:104D300008700CF024FD45E247F25102914200F068
:104D4000868247F25202914240F03C820A21C0B270
:104D500002AA00911221DBE1002800F0338240F624
:104D600040410020C2F20001086040F6CC41C2F28E
:104D70000001086040F29C11C2F200010A78062A84
:104D800000F0A082072A40F0A48202229BE20028C1
:104D900000D5404240F6413110F0FF0FC2F2000151
:104DA00008707FF4A6AC40F635300121C2F2000055
:104DB00001700020C0E4042800F30482002800F001
:104DC000018240F24071C2F200010978002940F0EE
:104DD000F98140F2901540F29C14C2B2C2F2000573
:104DE000C2F2000429782070914200F0EB8100F0BB
:104DF000FC00032800F229849FEDEA0A04F0DAFAA5
:104E000040F680300021C2F20000816240F6D830C6
:104E1000C2F20000816200F01ABC4DF2C04240F2C2
:104E2000E861C0F20102C2F200019042086005DCB4
:104E300042F64032CFF6FE72904201DA10460A6026
:104E400001EE100A9FEDD80AB8EEC11A81EE000AF1
:104E500004F0B0FAB6E147F2005240F6D841C7F686
:104E60002B52C2F200019042086005DC48F6003285
:104E7000C8F2D422904201DA10460A6001EE100A0C
:104E800040F6D8309FEDC80AB8EEC11AC2F2000051
:104E90001CE047F2005240F64C41C7F62B52C2F2DA
:104EA00000019042086005DC48F60032C8F2D422C6
:104EB000904201DA10460A6001EE100A40F6803096
:104EC0009FEDB90AB8EEC11AC2F2000081EE000AE5
:104ED00080ED0E0A76E1002800D540424DF2C04137
:104EE0009FEDB10AC0F201018842B8BF014640F20D
:104EF000941001EE101AC2F20000B8EEC11A01605F
:104F000040F6803081EE000AC2F200001AE000286C
:104F100000D540424DF2C0419FEDA30AC0F201010D
:104F20008842B8BF014640F2981001EE101AC2F252
:104F30000000B8EEC11A016040F6D83081EE000AD8
:104F4000C2F20000B1EE401A80ED0C1A80ED0D0A9D
:104F500038E140F2682101EE100A9FED940AC2F296
:104F60000001B8EE411A086040F6D44140F24420F6
:104F700081EE000AC2F20001C2F20000097880ED61
:104F8000000A002940F01E81D0ED010A1CE040F229
:104F9000682101EE100A9FED860AC2F20001B8EE08
:104FA000411A486040F6D44140F24420C1EE000A64
:104FB000C2F20001C2F200000978C0ED010A002926
:104FC00040F0008190ED000A90ED021A1CE040F2E2
:104FD000682101EE100A9FED750AC2F20001B8EED9
:104FE000411A886040F6D44140F2442081EE001A14
:104FF000C2F20001C2F20000097880ED021A002915
:1050000040F0E08090EC020A40F6D834C2F200048E
:105010005EE040F2FC1101EE100A9FED640AC2F25C
:105020000001B8EE411A086040F64A4140F2D8103B
:1050300081EE000AC2F20001C2F20000097880EDA0
:10504000000A002940F0BE80D0ED010A1CE040F2C9
:10505000FC1101EE100A9FED560AC2F20001B8EEF3
:10506000411A486040F64A4140F2D810C1EE000AA9
:10507000C2F20001C2F200000978C0ED010A002965
:1050800040F0A08090ED000A90ED021A1CE040F282
:10509000FC1101EE100A9FED450AC2F20001B8EEC4
:1050A000411A886040F64A4140F2D81081EE001A59
:1050B000C2F20001C2F20000097880ED021A002954
:1050C00040F0808090EC020A40F68034C2F2000486
:1050D000204604F05EFC0020A06273E0C4B202AD82
:1050E0000A260321012320462A46009602F044FEA8
:1050F000009620460B212A460AE00A21C0B202AAE5
:105100000091002104E00A21C0B202AA009101210D
:10511000012355E00A21C0B202AA0091B0214EE05D
:105120000A21C0B202AA0091402148E00A21C0B27F
:1051300002AA0091802142E00A21C0B202AA009195
:1051400020213CE00A21C0B202AA0091502136E0A1
:105150000A21C0B202AA0091702130E00A21C0B237
:1051600002AA009174212AE00A21C0B202AA009189
:10517000782124E00A21C0B202AA0091A0211EE0F9
:105180000A21C0B202AA0091A42118E00A21C0B2EB
:1051900002AA0091A82112E040F2F061C2F20001DF
:1051A00008600FE0000000000000C8420050C34744
:1051B0008096184B0A21C0B202AA00913C21042318
:1051C00002F0DAFD40F2FA0004ACC2F2000021461F
:1051D000007805F0DBFF5FFA88F540F248714FF088
:1051E000804200234FF400274FF0004645EA00209C
:1051F000C2F2000140F000700B6281E88D00C1E94D
:105200000463C1E9063340F63810224615E240F641
:10521000804040F65843BDF808209DF80A70C2F25D
:105220000000C2F20003016823F8212003EB810291
:10523000977053F82120002AC4D040F62033082963
:10524000C2F200031A609CBF01310160BAE70A2173
:10525000C0B202AA032300913021B1E747F2040152
:10526000401A062800F2C881DFE810F007008E011E
:105270009901C601C601C601A30140F64130C2F240
:1052800000000178002918BF0121017047F20400D5
:10529000ADF810000591AFE147F20401611A06294B
:1052A00000F2AA81DFE811F007008F019601A80142
:1052B000A801A8019C010A21C0B203AA0091002103
:1052C000FFF78CBC01220A7040F6E041C2F20001F7
:1052D000087040F6C1400021C2F20000017040F6A3
:1052E000C040C2F20000017040F63540C2F200003A
:1052F000017040F63440C2F20000017040F240708C
:10530000C2F20000017040F24170C2F20000017868
:1053100001F0FD01FFF7DFBA47F21700ADF810000A
:1053200040F29410C2F20000FFF750BC47F21800A0
:10533000ADF8100040F29810C2F20000FFF746BC32
:1053400040F6D440C2F200000078032800F25481F5
:10535000DFE810F00400870191019B0147F2200073
:10536000ADF8100040F26820C2F20000FFF72EBC3A
:1053700040F6D440C2F200000078032800F23C81DD
:10538000DFE810F004008D0196019F0147F2210033
:10539000ADF8100040F26820C2F20000EDE140F6E6
:1053A00048301FED7F0AC2F2000090ED001A47F26C
:1053B000300014E040F628301FED850AC2F20000EC
:1053C00090ED001A47F2310009E040F674301FED0D
:1053D0008A0AC2F2000090ED001A47F2320021EE74
:1053E000000A11E047F23300ADF8100040F2F0601F
:1053F000C2F20000FFF7EABB41F2A410C2F20000C3
:1054000090ED000A47F23400BDEEC00AADF810007E
:1054100010EE100AEFE00A21C0B203AA0091202189
:10542000E3E00A21C0B203AA00915021DDE00A2185
:10543000C0B203AA00917021D7E00A21C0B203AA2A
:1054400000917421D1E00A21C0B203AA0091782111
:10545000CBE00A21C0B203AA0091A021C5E00A2135
:10546000C0B203AA0091A421BFE00A21C0B203AADE
:105470000091A821B9E00A21C0B203AA00916021DD
:10548000B3E00A21C0B203AA00919021ADE00A2145
:10549000C0B203AA0091C021A7E00A21C0B203AAAA
:1054A00000913C21A1E00A21C0B203AA009134215D
:1054B0009BE00A21C0B203AA0091382195E040F692
:1054C000D440C2F200000078032800F29580DFE8A3
:1054D00010F0040001010A01130147F22200ADF8A7
:1054E000100040F26820C2F2000062E140F64A403B
:1054F000C2F200000078032800F27E80DFE810F09E
:10550000040005010F01190147F22300ADF8100056
:1055100040F2FC10C2F20000FFF758BB40F64A40D0
:10552000C2F200000078032866D8DFE810F004001B
:105530000C0115011E0147F22400ADF8100040F2E5
:10554000FC10C2F2000018E140F64A40C2F200002E
:105550000078032850D8DFE810F0040012011B0186
:10556000240147F22500ADF8100040F2FC10C2F211
:1055700000001EE147F23500ADF8100040F6F020C3
:10558000C2F20000FFF722BB40F29C10C2F2000002
:10559000007806285ED0072808BF02205BE047F2AB
:1055A0000600ADF8100040F2E860C2F20000FFF71C
:1055B0000DBB47F20A00ADF8100040F6D840C2F229
:1055C0000000FFF703BB0A21C0B203AA009101212A
:1055D000FFF704BB0A21C0B203AA0091B02104E086
:1055E0000A21C0B203AA00914021042302F0A9FBC2
:1055F0000398ADF81040059007F47F4740F24871DA
:105600004FF0804000224FF400234FF0004647EA5D
:10561000056740F2FA05C2F20001C2F200050A6213
:105620002D782F43C1E9007001F108004CC0C1E999
:105630000522CA6140F6381004AAC2F20000FEF743
:1056400098FC12B0BDE8F041704706F045FA2078AA
:105650002870B7E50120059047F20500ADF810006D
:10566000CAE747F22000ADF8100040F28020C2F2F5
:105670000000FFF7ABBA47F22000ADF8100040F28F
:105680009820C2F20000FFF7A1BA47F22000ADF85F
:10569000100040F25C20C2F20000FFF797BA47F218
:1056A0002100ADF8100040F28020C2F2000064E05A
:1056B00047F22100ADF8100040F29820C2F200003D
:1056C0005BE047F22100ADF8100040F25C20C2F22E
:1056D000000052E047F22200ADF8100040F28020B6
:1056E000C2F2000065E047F22200ADF8100040F27F
:1056F0009820C2F200005CE047F22200ADF81000F2
:1057000040F25C20C2F2000053E047F22300ADF803
:10571000100040F21420C2F20000FFF757BA47F21F
:105720002300ADF8100040F22C20C2F20000FFF779
:105730004DBA47F22300ADF8100040F2F010C2F26B
:105740000000FFF743BA47F22400ADF8100040F222
:105750001420C2F2000010E047F22400ADF810005F
:1057600040F22C20C2F2000007E047F22400ADF81E
:10577000100040F2F010C2F2000040683BE747F230
:105780002500ADF8100040F21420C2F2000010E035
:1057900047F22500ADF8100040F22C20C2F20000C4
:1057A00007E047F22500ADF8100040F2F010C2F219
:1057B000000080681FE7704790F85C1001290AD14B
:1057C000022180F85C1001688A6922F001028A6176
:1057D0000021016604E0016E41F00401016601212F
:1057E0000846704790F85C1002292CD101688A693C
:1057F00042F001028A618A6912F0010F08D14FF06C
:10580000FF3201320B2A23D28B6913F0010FF8D03B
:105810008A6922F010028A618A6912F0080F08D0A2
:105820004FF0FF3201320B2A12D28B6913F0080FAE
:10583000F8D18A6942F002028A61012180F85C1085
:10584000002181650CE0016E41F00801016606E06F
:10585000016E41F001010166032180F85C10012115
:1058600008467047704770477047704770477047E9
:105870002DE9F04740F2B41982468846C2F2000989
:1058800099F80000012801D102267EE0012089F864
:1058900000004FF47A70FDF748FB0646002E71D1E8
:1058A00042F214040020C9F80400C4F2020454F8BF
:1058B000141C54F8140C00F4806011F4007F08D11B
:1058C00080B154F8140C20F4806044F8140C0220C9
:1058D0000BE048B154F8140C20F4806044F8140C28
:1058E000032002E0002000E0012089F81C00DAF823
:1058F0000000012815D19AF80400C0071EBF2068D7
:1059000040F004002060206840F4803020604FF4B4
:105910007A70FDF70AFB0646206820F0040020603C
:105920002EE04FF0FF30C8F80000DAE9027038448A
:10593000874221D2FD00216805F4FF6021F4FC714B
:1059400008432060206840F002002060206840F496
:10595000803020604FF47A70FDF7E7FA0646206841
:10596000002E20F4FD70206008D1DAE90201013731
:10597000083508448742DED3002601E0C8F80070ED
:10598000FDF7A1FA002089F800003046BDE8F08755
:1059900042F21400C4F20200016841F000410160CB
:1059A0000121006881EAD07070472DE9F04381B091
:1059B00040F2B41806461F4615460C46C2F20008CF
:1059C00098F80000012801D102204CE0012088F85D
:1059D00000004FF47A70FDF7A8FA002840D142F297
:1059E00014090020002EC4F20209C8F8040022D0D5
:1059F000701E01281AD8D9F8000040F48020C9F898
:105A00000000EFF31080EFF3108172B6402155F8DB
:105A1000042B013911F0FF0F44F8042BF7D180F368
:105A20001088022E02D16FF4802410E04FF47A70B7
:105A3000FDF77BFA14E0D9F8000040F00100C9F846
:105A400000002560BFF36F8F67606FF001044FF4B3
:105A50007A70FDF76AFAD9F800102140C9F80010F1
:105A6000002188F8001001B0BDE8F08342F2080080
:105A7000C4F20200C168B1F1FF3FC4BF002070470B
:105A800040F22311C4F26751016048F6AB11CCF625
:105A9000EF510160C068C00F70472DE9F04F82B030
:105AA00000297ED041F20042062700240126C4F6D8
:105AB0000002904200F138424FEAB22308BF0527A6
:105AC000052B4FF0000338BF4FEAB2270191009732
:105AD000751E012202FA05FC1CEA010958D040F2A9
:105AE00000414FEA950804F00C0EC4F20101A1F543
:105AF0007E7A0F215AF828B0009F01FA0EF10BEAC6
:105B0000010207FA0EF7BA4221D140F20042C4F274
:105B1000010217463A6822EA09023A607A6822EAE4
:105B200009027A6040F20C42C4F201029646DEF8A5
:105B3000002022EA0902CEF80020BA6822EA09020F
:105B4000BA605AF8282022EA01014AF828100321F5
:105B500002680F2799400A43026004F01C0207FA0A
:105B600002F24FF6FC77C7F6FF7707EA55070744BE
:105B70003D6A25EA02023A62C2688A43C26042680C
:105B800022EA0C024260826822EA010181600199E6
:105B900031FA06F203F1020304F1040406F10106EE
:105BA00096D102B0BDE8F08F2DE9F04F82B00D68BC
:105BB000002D00F0D78041F2004206270024C4F6F1
:105BC0000002904200F138424FEAB22308BF052795
:105BD000052B4FF0000338BF4FEAB227009701278B
:105BE000A7F10109012202FA09FC15EA0C0800F0EC
:105BF000B080D1F804A00AF0030BABF1010EBEF1A6
:105C0000010F12D8032202FA03F68268B243CE686B
:105C10009E4032438260CAF30012466802FA09F2DB
:105C200026EA0C063243426002E0BBF1030F25D0A6
:105C30000322C668BBF1020F02FA03F226EA02024F
:105C40008E6806FA03F642EA0602C26016D104F034
:105C50001C020F2606FA02FC4FF6FC76C7F6FF760A
:105C600006EA590505442E6A26EA0C0C0E6906FA66
:105C700002F242EA0C022A62D1F804A00326056867
:105C80000AF003021AF4403F06FA03F602FA03F29E
:105C900025EA060642EA060202605AD041F2600294
:105CA00040F2004E04F00C05C4F20202C4F2010EF0
:105CB0001646326842F001023260326802F0010298
:105CC000019229F00302019E72444FF60846CFF676
:105CD000FF76B1460F2652F809C0AE402CEA060CFA
:105CE000009E06FA05F545EA0C0642F80960DEF862
:105CF00008204D6842EA080615F4801F08BF22EA12
:105D0000080640F20C4215F4001FC4F20102CEF85E
:105D100008609446DCF8002042EA080608BF22EA40
:105D2000080615F4003FCCF80060DEF8042042EAD3
:105D3000080608BF22EA080615F4803FCEF8046082
:105D4000DEF8002042EA080608BF22EA0806CEF87C
:105D500000600D680233043435FA07F207F10107D9
:105D60007FF43EAF02B0BDE8F08F0069084018BF75
:105D70000120704700F11803002A08BF00F1280332
:105D80001960704741F29410C2F200000068704739
:105D900040F20C4041F29411C2F20000C2F2000144
:105DA00000680A6810440860704780B5032000F05E
:105DB000A1F80F2000F007F808B1012080BD00F025
:105DC0002BF8002080BDB0B5044640F20C40C2F272
:105DD00000000068E8B14FF47A71B1FBF0F040F2D6
:105DE000E801C2F200010968B1FBF0F000F0AFFE7B
:105DF00001250F2C0ED868B94FF0FF302146002244
:105E0000002500F045F840F21040C2F200000460A6
:105E100000E001252846B0BD82B041F25800C4F22E
:105E20000200816841F001018160816801F0010197
:105E300001910199016841F080510160006800F012
:105E400080500090009802B000F0CBB800280FDB23
:105E500000F01F010122400902FA01F14EF2801206
:105E6000CEF2000242F82010BFF34F8FBFF36F8FC6
:105E7000704700280BDB00F01F010122400902FAE5
:105E800001F14EF20012CEF2000242F820107047EB
:105E900010B500F00F034EF60C5E00F1604CB0F14F
:105EA000FF3FA3F10403CEF2000E734403F10C0490
:105EB000C8BF0CF56444DEF80000C0F3022000F116
:105EC000040CC31E80F00700BCF1070F4FF0010C5B
:105ED00038BF0023042828BF04200CFA00F0013842
:105EE00008400CFA03F10F319840114008430001BB
:105EF000207010BD4EF60C514FF6FF03CEF200019C
:105F00000A681A4060F30A2242F0806040F0FD7097
:105F10000860704770B347F20001B0F5007FC4F22B
:105F200000010A6856D1D1F8800040F48070C1F8B1
:105F3000800002F4C060B0F5806F4FD10868012284
:105F400062F34A203222086040F2E800C2F2000008
:105F5000006850434DF68362C4F21B32A0FB02027C
:105F60006FEA92404A6918B1013012F48062F9D1A7
:105F700048692AE047F20000C4F200000168D0F846
:105F8000802001F4C06122F48072B1F5806FC0F806
:105F9000802023D10168012262F34A21322201606C
:105FA00040F2E801C2F20001096851434DF68362F4
:105FB000C4F21B32A1FB02126FEA9241426919B18D
:105FC000013112F48062F9D1406910F4806F05D07C
:105FD000032004E0022060F34A220A600020C0B2DD
:105FE000704747F20800C4F20000016841F48041A4
:105FF000016070472DE9F04182B0044641F20C0681
:10600000A078C4F20206000701D4002068E0F06C1A
:1060100010F0805F0BD1F06C4FF0010840F0805021
:10602000F064F06C00F080500190019801E04FF0B6
:10603000000847F20007C4F20007386840F4807097
:106040003860FFF79FFE0546386810F4807F05D161
:10605000FFF798FE401B0228F6D939E0D6F88400F5
:1060600010F440702AD0216C884211D0D6F88400F8
:10607000D6F8841041F4803120F44070C6F88410C2
:10608000D6F8841021F48031C6F88410C6F8840054
:10609000C00713D0FFF776FE0546D6F8840010F04F
:1060A000020F0BD141F28837FFF76CFE401BB8425C
:1060B0000ED8D6F8840010F0020FF5D0D6F8840080
:1060C000216C20F440700843C6F88400002000E0F2
:1060D0000320B8F1000F1EBFF16C21F08051F16474
:1060E000216811F0010F05D0F26F636822F00302FE
:1060F0001A43F2678A0705D5F26FA36822F00C02F3
:106100001A43F2674A0705D5F26FE36822F03002BE
:106110001A43F2670A0705D5F26F236922F0C0021D
:106120001A43F2678A0605D5F26F636922F440626A
:106130001A43F2674A0605D5F26FA36922F440526A
:106140001A43F2670A0605D5F26FE36922F440426A
:106150001A43F267CA0505D5F26F236A22F440326A
:106160001A43F2678A0505D5F26F636A22F440226A
:106170001A43F2674A050DD5F26FA36A22F4401262
:10618000B3F5801F42EA0302F26702BF326842F4AD
:10619000801232600A050DD5F26FE36A22F44002E4
:1061A000B3F5800F42EA0302F26702BF326842F49D
:1061B00080123260CA040DD5F26F236B22F0407258
:1061C000B3F1807F42EA0302F26702BF326842F411
:1061D000801232608A040DD5F26F636B22F0406248
:1061E000B3F1006F42EA0302F26702BF326842F481
:1061F000801232604A040DD5F26FA36B22F0406228
:10620000B3F1006F42EA0302F26702BF326842F460
:106210008012326009040DD5F16FE26B21F040511C
:10622000B2F1805F41EA0201F16702BF316841F4D7
:1062300080313160C0B202B0BDE8F0812DE9F04795
:1062400004468A46002C63D041F200094FF4805086
:10625000C4F2020959F8001001F00F0151450DD2A6
:1062600059F8001021F00F0141EA0A0149F8001025
:1062700059F8000000F00F00504549D1206810F097
:10628000010F02D14FF000087CE06168032939D189
:10629000D9F8001011F0007F3AD0D9F80C10D9F8D5
:1062A0000C20D9F80C30D9F80C700226C7F34167DE
:1062B00001F0030106EB470742F200460329C0F252
:1062C000F40604BF41F20026C0F27A06C2F30311BD
:1062D000C3F306220131B6FBF1F151434BF2004208
:1062E000B1FBF7F1C0F2C442914208D9D9F80810C5
:1062F00011F0F00F1AD0800701D5A068B0B14FF0AF
:1063000000081CE0D9F80000022905D1800305D45B
:106310000120C0B2BDE8F0874005F9D500F0B4F81F
:106320004BF20041C0F2C4418842E8D9D9F80800D4
:1063300008214FF0800861F30710C9F80800D9F868
:106340000800616820F003000843C9F80800FFF75F
:1063500019FD0646D9F80800616800F00C00B0EBA2
:10636000810F0FD041F28837FFF70CFD801BB84238
:1063700000F28880D9F80800616800F00C00B0EBEA
:10638000810FF1D1206810F0020F07D1B8F1800F12
:106390001DD1D9F8080020F0F00016E0410742BFF7
:1063A000D9F8081041F4E061C9F80810000706D5D3
:1063B000D9F80800072161F30D20C9F80800D9F8C1
:1063C0000800A16820F0F0000843C9F808004FF465
:1063D000805559F8050000F00F0050451FD959F8B5
:1063E000050020F00F0040EA0A0049F80500FFF719
:1063F000C9FC064659F8050000F00F0050450ED0C4
:1064000041F288374FF48055FFF7BCFC801BB8423F
:1064100038D859F8050000F00F005045F4D1206835
:1064200010F0040F07D0D9F80810E26821F4E061F9
:106430001143C9F80810000708D5D9F808002169E8
:1064400020F4605040EAC100C9F8080000F01CF8D0
:10645000D9F8081042F24C72C0F60102C1F30311E0
:10646000515C01F01F01C84040F2E801C2F2000196
:10647000086040F21040C2F200000068BDE8F0473A
:10648000FFF7A1BC032044E741F2080142F20042B9
:10649000C4F20201C0F2F402086800F00C00042803
:1064A000104608BF7047086800F00C0341F2002056
:1064B000C0F27A00082B1ED00B6803F00C030C2BE3
:1064C0001CBF002070474B6803F00303032B08BF79
:1064D00002464868C0F303100130B2FBF0F04A688E
:1064E000C2F30622496850430222C1F3416102EB24
:1064F0004101B0FBF1F070472DE9F04381B0044653
:10650000002C00F08B81207841F2000941F2040751
:10651000C4F20209C4F20207C0073AD07968B86829
:1065200001F00C0108292BD0032281F00C0122EA92
:1065300000000843B0FA80F0400921D16668B6F542
:10654000803F09D0D9F80000B6F5A02F40F0CE81E9
:1065500040F48020C9F80000D9F8000040F48030F1
:10656000C9F80000FFF70EFC0546D9F8000010F44A
:10657000003F0ED1FFF706FC401B6428F5D90DE261
:10658000D9F8000010F4003F03D06068002800F044
:1065900045812078800719D4207800076DD561697E
:1065A000D7F89000002956D040F00100C7F89000BD
:1065B000FFF7E8FB0546D7F8900010F0020F5CD11A
:1065C000FFF7E0FB401B0228F5D9E7E17868B968DE
:1065D00000F00C00042823D001F0030180F00C002F
:1065E00081F002010843B0FA80F0400918D1E16857
:1065F000D9F80000002900F0298140F48070C9F822
:106600000000FFF7BFFB0546D9F8000010F4806FCB
:1066100040F0AC80FFF7B6FB401B0228F4D9BDE187
:10662000D9F8000010F4806F03D0E068002800F073
:10663000F5803868216920F0FE4040EA016038604A
:1066400040F21040C2F200000068FFF7BCFB0028D7
:1066500040F0E480A0E720F00100C7F89000FFF7C9
:1066600091FB0546D7F8900010F0020F05D0FFF718
:1066700089FB401B0228F5D990E1207840075CD5C2
:10668000786D10F0805F0BD1786D4FF0010840F00D
:1066900080507865786D00F080500090009801E09F
:1066A0004FF0000846F20006CFF6FE7659F80600D5
:1066B00010F4807F13D159F8060040F4807049F837
:1066C0000600FFF75FFB054659F8060010F4807FCF
:1066D00005D1FFF757FB401B0228F5D95EE1A668FC
:1066E000012E08D0D7F88C00052E40F0DC8040F059
:1066F0000400C7F88C00D7F88C0040F00100C7F800
:106700008C00FFF73FFB0546D7F88C0010F0020F16
:106710000CD141F28836FFF735FB401BB04200F246
:106720003D81D7F88C0010F0020FF4D0B8F1000FC3
:106730001EBF786D20F080507865207880062FD5B8
:10674000A169D7F89400C9B140F00100C7F89400DE
:10675000FFF718FB0546D7F8940010F0020F1FD181
:10676000FFF710FB401B0228F5D917E138682169B3
:1067700020F0FE4040EA016038600DE720F00100A3
:10678000C7F89400FFF7FEFA0546D7F8940010F01A
:10679000020F05D0FFF7F6FA401B0228F5D9FDE0FD
:1067A000E069002800F0FC80796801F00C010C29F8
:1067B00036D1012832D0B868216A00F003028A423B
:1067C0002CD1616A6FF00F0202EB011100F0F002B0
:1067D0008A4223D1A16A00F4FE42B2EB012F1DD1FF
:1067E000E16A00F07842B2EBC16F17D10022216B51
:1067F000CFF6E07202EA015100F4C002A1F50011E7
:106800008A420BD1616B4FF07E4200F0C06002EA19
:10681000016101F17E41884200F0C2800120C0E0A8
:10682000D9F80010022821F08071C9F8001020D199
:10683000FFF7A8FA0546D9F8000010F0007F71D0E4
:10684000FFF7A0FA401B0228F5D9A7E020F48070DA
:10685000C9F80000FFF796FA0546D9F8000010F4D1
:10686000806F3FF499AEFFF78DFA401B0228F4D9F0
:1068700094E0B8684FF6FF71CFF6EE6120F00300A8
:10688000B860B8680840B860FFF77CFA0446D9F8E9
:10689000000010F0007F00F08380FFF773FA001B08
:1068A0000228F4D97AE020F00100C7F88C00D7F86C
:1068B0008C0020F00400C7F88C00FFF763FA05464F
:1068C000002E7FF421AFD7F88C0010F0020F3FF4B8
:1068D0002DAF41F28836FFF755FA401BB0425DD824
:1068E000D7F88C0010F0020FF5D11FE720F48030AC
:1068F000C9F80000D9F8000020F48020C9F8000091
:10690000FFF740FA0546002E7FF42FAED9F80000BD
:1069100010F4003F3FF43DAEFFF734FA401B64280B
:10692000F4D93BE004F12006B8686FF00F054ECEB5
:1069300005EB021248F20C05C0F29F1528400843EF
:10694000216B10430022CFF6E07240EA032002EAF6
:1069500001514FF07E42A1F500110843616B40EAFE
:10696000C66002EA016101F17E410843B860D9F8CE
:10697000000040F08070C9F80000B86840F08070F6
:10698000B860FFF7FFF90446D9F8000010F0007F67
:1069900006D1FFF7F7F9001B0228F5D9032000E024
:1069A0000020C0B201B0BDE8F08310B504468CB140
:1069B000022084F85D002068016821F04001016038
:1069C000204600F07AF80020206684F85C0084F805
:1069D0005D0010BD012010BDB0B5044634B1606A41
:1069E00030B10020206104F1140007E00120B0BDA7
:1069F0006068B0F5827F03D004F11C0000210160C3
:106A00000020A06294F85D1021B984F85C00204653
:106A100000F068F8022084F85D002068016821F029
:106A200040010160D4F80CE0BEF5E06F05D94FF0ED
:106A3000000CBEF5706F03D104E04FF4805C01D010
:106A40000023A362D4E90132D4E9041503F482736C
:106A500002F4044201F002011A43114305F001025D
:106A60001143A26902F400731943E36903F0380388
:106A70001943236A03F080031943A36A03F4005304
:106A80001943042301600EF4706103EA124241EAE3
:106A90000C01636B1143626A02F01002114303F0B0
:106AA000080211434160C16921F40061C161002005
:106AB0000121206684F85D10B0BD43F2000100683A
:106AC000C4F20101884218BF704741F26000C4F26D
:106AD0000200016821F4805101604FF09040E021F4
:106AE000FEF7DBBF10B586B0044601A81421FBF702
:106AF000A8FB43F200012068C4F20101884224D1BE
:106B000041F24C00C4F20200416941F480514161FC
:106B1000416901F4805100910099016841F001013F
:106B2000016001A9006800F00100009000980220B7
:106B30000290E020019000200390032004900520A3
:106B400005904FF09040FFF72FF806B010BD411EA2
:106B50000020B0EB116F1CBF012070474EF21002F5
:106B6000F023CEF2000251604EF62351CEF2000126
:106B70000B70072190601160704790F83C20012A4B
:106B800001D1022161E070B5012248F2FF7480F862
:106B90003C20CFF6F074D1E900C3D1E902E22340F2
:106BA00022F47C522EF4705422431A432CF477239F
:106BB00043F2004C1A430B69C4F2010C23F4762310
:106BC0001A434B691A430B6B22F4742223F470238B
:106BD0001A438B6942EA03430268624505D042F6D4
:106BE0000044C4F20104A24203D1CC6923F08053D3
:106BF0002343624505D042F60044C4F20104A24298
:106C00001DD1D1E9084E00268D6A23F07C736245C0
:106C1000CFF6F04606EA055524F0007443EA050372
:106C200043EA040343EA0E0305D042F60046C4F2E9
:106C30000106B24203D1C96A23F000530B4300217D
:106C4000536480F83C10BDE87040C8B2704790F8BB
:106C50003C300222012B52D010B580F83D20012299
:106C600043F2004C80F83C20C4F2010C02685368E7
:106C7000D2F808E0624505D042F60044C4F20104AF
:106C8000A24203D14C6823F4700323434FF68F7460
:106C9000CFF6FF5423400C682343536042F6FF3382
:106CA000C4F201039A420FDCB2F1804F1AD040F2D5
:106CB0000043C4F200039A4214D040F60003C4F229
:106CC00000039A420ED012E042F60043C4F20103E0
:106CD0009A4207D044F20003C4F201039A4201D061
:106CE000624504D189682EF0800319439160002227
:106CF000012180F83C2080F83D10BDE81040D0B262
:106D0000704710B50446022041F2111284F83D008C
:106D10002068016A114208D1016A44F244421142DA
:106D200003D1016821F001010160204600F04DF817
:106D3000002084F8480084F83E0084F83F0084F87E
:106D4000400084F8410084F8420084F8430084F84D
:106D5000440084F8450084F8460084F8470084F82D
:106D60003C0084F83D00002010BD10B5044654B32B
:106D700094F83D0028B9002084F83C00204600F03B
:106D800037F80220211D84F83D00206803F01AFF27
:106D9000012084F8480084F83E0084F83F0084F81D
:106DA000400084F8410084F8420084F8430084F8ED
:106DB000440084F8450084F8460084F8470084F8CD
:106DC0003D00002010BD012010BD42F600410068CA
:106DD000C4F20101884218BF704741F26000C4F25A
:106DE0000200016821F4006101601920FFF72EB84C
:106DF00042F600410068C4F20101884218BF7047A2
:106E000080B582B041F260000022C4F20200016845
:106E100041F4006101600021006800F4006001900D
:106E200001981920FFF734F8192002B0BDE880401E
:106E3000FFF71FB890F83C300222012B00F0AC8025
:106E400080B580F83D20012280F83C208822D0F8CF
:106E500000C0CFF6CE72DCF808301A40CCF808201B
:106E60000B686F2B0FDD1F22C0F21002934236DC3D
:106E7000B3F5005F45DA702B00F09080B3F5805FCA
:106E800000F08180D1E02F2B35DD4F2B3EDC302B05
:106E90006DD0402B40F0C980D1F804E0C968DCF81F
:106EA0002030DCF8202022F00102CCF82020DCF891
:106EB000182022F0F00242EA01114FF68872CCF855
:106EC000181023F00A01CFF6CF7241EA0E01CCF878
:106ED0002010DCF80810114041F0470151E03F213B
:106EE000C0F210018B4238DC2021C0F210018B422D
:106EF0003DD0302137E0D3B3102B38D0202B36D003
:106F000093E05DD0B3F1101F31D08EE0502B69D0EB
:106F1000602B40F08A804A68C968DCF8203023F092
:106F20001003CCF82030DCF8183023F4704343EA27
:106F30000131DCF82030CCF8181023F0A00141EA30
:106F400002114FF68872CCF82010CFF6CF72DCF821
:106F50000810114041F0670113E04021C0F2100118
:106F60008B4204D07021C0F210018B425DD14FF6EC
:106F70008872DCF80810CFF6CF721140194341F047
:106F80000701CCF808100022002180F83C100121F4
:106F900080F83D10BDE88040D0B27047D1E90123B0
:106FA000C9681A4342EA0121DCF8082022F47F4232
:106FB0001143CCF80810DCF8081041F07701E0E745
:106FC000D1E90123C9681A4342EA0121DCF808200B
:106FD00022F47F421143CCF80810DCF8081041F489
:106FE0008041CEE7D1F804E0C968DCF82030DCF855
:106FF000202022F00102CCF82020DCF8182022F01A
:10700000F00242EA01114FF68872CCF8181023F012
:107010000A01CFF6CF7241EA0E01CCF82010DCF85D
:107020000810114041F05701ABE70122ACE770476F
:1070300010B586B0044601A81421FBF702F940F20E
:1070400000412068C4F20001884220D042F600418D
:10705000C4F20101884236D141F24C00C4F2020070
:10706000016841F00101016001A9006800F0010020
:1070700000900098022002904FF4E0600190002000
:10708000CDE90300062005904FF0904019E041F251
:107090004C00C4F20200016841F0020101602021AD
:1070A000006800F002000090009802200290019118
:1070B00000210390CDE9041040F2004001A9C4F67C
:1070C0000000FEF771FD06B010BD0000B0B504462B
:1070D0000D4694F83C00012801D1022052E04FEA0D
:1070E000B2010120052984F83C0048D8DFE801F00E
:1070F000030B131B23332068294603F05DFE206831
:1071000050F8181F1EE02068294603F08EFE206804
:1071100050F8181F26E02068294603F0C3FE2068B7
:1071200050F81C1F0EE02068294603F0F8FE206886
:1071300050F81C1F16E02068294603F02DFF206838
:1071400050F8501F41F008010160016821F004016E
:10715000016029690FE02068294603F04DFF20688F
:1071600050F8501F41F400610160016821F4806112
:1071700001602969090202681143016000200021B1
:1071800084F83C10C0B2B0BD10B5044654B394F8B6
:107190003D0028B9002084F83C00204600F03BF870
:1071A0000220211D84F83D00206803F00BFD012022
:1071B00084F8480084F83E0084F83F0084F84000DA
:1071C00084F8410084F8420084F8430084F84400C5
:1071D00084F8450084F8460084F8470084F83D00B0
:1071E000002010BD012010BD40F200420168C4F231
:1071F0000002914218BF704780B541F25801C4F2B5
:1072000002010A6822F002020A60806AFCF767FC49
:10721000BDE88040704770B582B0044640F200413E
:107220002068C4F2000188422FD141F2580040F694
:10723000D8054FF03E0C102200234FF4807E4FF40F
:107240008066C4F20200C2F20005016841F002014A
:10725000016030210068C4F2020100F002000190D8
:107260000198C5E9001CC5E902238020C5E9040E88
:107270004FF40050C5E9066328622846FCF703FD79
:1072800008B1FBF716FEA562AC6202B070BD40F615
:107290004C200421C2F2000000F0DEB9704700006B
:1072A00059B10A1F4FEAB202032A09D8DFE802F0F7
:1072B000020B0E1100F13F020DE000F13E020AE068
:1072C00000F1430207E000F1400204E000F1410256
:1072D00001E000F142021278012A1CBF0120704730
:1072E00061B10A1F4FEAB202032A0BD8DFE802F0AD
:1072F000020E1216022280F83F2012E0022280F8CD
:107300003E200EE0022280F843200AE0022280F8AC
:10731000402006E0022280F8412002E0022280F8AC
:10732000422001F01F01012202FA01F30168086AFC
:1073300098430862086A18430862A1F18040A0F5EA
:1073400096304FEAB020072808D802FA00F010F073
:10735000E50F1EBF486C40F40040486442F6FF3021
:10736000C4F2010081420DDCB1F1804F1CD040F22B
:107370000040C4F20000814216D040F60000C4F282
:1073800000000FE042F60040C4F2010081420BD041
:1073900044F20000C4F20100814205D043F20040F3
:1073A000C4F2010081420BD107228868C0F20102B9
:1073B00002400020062A08D0B2F5803F08BF70477F
:1073C000086840F00100086000207047B0B50C4626
:1073D00005465CB1201F4FEAB000032809D8DFE85A
:1073E00000F0020B0E1105F13F000DE005F13E002B
:1073F0000AE005F1430007E005F1400004E005F173
:10740000410001E005F142000078022801D102218B
:1074100020E05CB1201F4FEAB000032809D8DFE864
:1074200000F0020B0E1105F13F000DE005F13E00EA
:107430000AE005F1430007E005F1400004E005F132
:10744000410001E005F142000078012801D11AB99C
:1074500013B10121C8B2B0BD64B1201F4FEAB00022
:1074600003280BD8DFE800F0020E1216022085F880
:107470003F0012E0022085F83E000EE0022085F871
:1074800043000AE0022085F8400006E0022085F86B
:10749000410002E0022085F842004FEAB4000328D0
:1074A000D7D8DFE800F0022141614AF6C541686A99
:1074B000C0F60001C1624AF62951686AC0F60001AF
:1074C00001634AF66151686AC0F6000141632968A8
:1074D000686A01F1340C11466246FCF771FC002821
:1074E000B7D14FF400715EE04AF6C541A86AC0F614
:1074F0000001C1624AF62951A86AC0F60001016381
:107500004AF66151A86AC0F6000141632968A86A79
:1075100001F1380C11466246FCF752FC00287FF45A
:1075200098AF4FF480613EE04AF6C541E86AC0F684
:107530000001C1624AF62951E86AC0F60001016300
:107540004AF66151E86AC0F6000141632968E86AB9
:1075500001F13C0C11466246FCF732FC00287FF436
:1075600078AF4FF400611EE04AF6C541286BC0F6C3
:107570000001C1624AF62951286BC0F6000101637F
:107580004AF66151286BC0F6000141632968286BF7
:1075900001F1400C11466246FCF712FC00287FF412
:1075A00058AF4FF480512868C268114304F01F029D
:1075B000C1600121036A01FA02F293430362036A84
:1075C0001A430262A0F18042A2F596324FEAB2223B
:1075D000072A07D8914011F0E50F1EBF416C41F416
:1075E0000041416442F6FF31C4F2010188420DDCE2
:1075F000B0F1804F1CD040F20041C4F2000188423B
:1076000016D040F60001C4F200010FE042F600413E
:10761000C4F2010188420BD044F20001C4F201011E
:10762000884205D043F20041C4F2010188420CD1E6
:1076300007228168C0F201020A400021062A3FF4B5
:1076400009AFB2F5803F3FF405AF016841F0010199
:1076500001600021FEE6000080B501F01F024FF03E
:10766000010C0CFA02FE0268136A23EA0E0313628D
:10767000136A1362A2F18043A3F596334FEAB32352
:10768000072B16D80CFA03F313F0E50F11D0D2F83C
:1076900020C041F211131CEA030F0AD1D2F820C016
:1076A00044F244431CEA030F03D1536C23F4004318
:1076B0005364D2F820C041F211131CEA030F0AD11F
:1076C000D2F820C044F244431CEA030F03D11368EC
:1076D00023F0010313604FEAB101042908D8DFE861
:1076E00001F0030B0F131700012180F83E1012E088
:1076F000012180F843100EE0012180F83F100AE0DC
:10770000012180F8401006E0012180F8411002E0DC
:10771000012180F84210002080BD000070B50D46A8
:1077200004464FEAB506032E84BF012070BDDFE892
:1077300006F0020910172068C16821F40071C160C9
:10774000606A13E02068C16821F48061C160A06AAA
:107750000CE02068C16821F40061C160E06A05E0C6
:107760002068C16821F48051C160206BFCF77AF970
:1077700005F01F00012101FA00F22068036A23EAE4
:1077800002020262026A0262A0F18042A2F596320F
:107790004FEAB222072A11D8914011F0E50F0DD01F
:1077A000016A41F21112114208D1016A44F24442C5
:1077B000114203D1416C21F400414164016A41F25C
:1077C0001112114208D1016A44F24442114203D11C
:1077D000016821F001010160032E07D8DFE806F0FF
:1077E000020A0E12012084F83E000EE0012084F807
:1077F00043000AE0012084F83F0006E0012084F8FD
:10780000400002E0012084F84100002070BDFEE746
:1078100010B545F20044C4F20004204600F00EFC0E
:10782000606820F000706060206820F00100206037
:10783000206820F00800206009F00DFE206840F06C
:1078400001002060206840F008002060206840F0BF
:1078500010002060206840F080002060206840F028
:107860002000206010BDB0B540F6A825042145F2E7
:107870000044C2F20005C4F2000428680130286008
:1078800040F2D460C2F20000017040F6B9312868BD
:10789000884226D3204600F0D1FB606820F00070BB
:1078A0006060206820F001002060206820F008005F
:1078B000206009F0D0FD206840F0010020602068C1
:1078C00040F008002060206840F010002060206830
:1078D00040F080002060206840F020002060002000
:1078E0002860A169A06911F0080F11D1C0065FD40A
:1078F000A06910F0020F65D1A06910F0040F40F0EC
:107900008980A06910F0200F40F09280A069B0BD7E
:10791000FE2101EA104040F69821C2F200010978E8
:1079200088424AD141F28415C2F20005288860B32A
:10793000206820F008002060206820F010002060FF
:10794000206820F080002060206820F02000206067
:1079500040F21C402988C2F2000002F061F80020C9
:107960002880206840F001002060206840F0080076
:107970002060206840F010002060206840F0800007
:107980002060206840F020002060A06910F4803F53
:1079900032D1E069012140F00800E061206840F048
:1079A0000400206040F6A420C2F200000160B0BDD7
:1079B000E06940F01000E061B0BDE06940F008000F
:1079C000E061B0BD40F64C7040F6F442C2F20000F7
:1079D000C2F200020188515C40F64E72C2F200020F
:1079E000A16201880131018001881288914222BF81
:1079F00000210180B0BDB0BDA069E16941F008017E
:107A000010F4803FE16108BFB0BD206840F0020083
:107A10002060B0BD41F28411606AC2F200010A88A0
:107A2000531C0B8040F21C41C2F200018854B0BDCF
:107A3000E06941F28415C2F2000540F02000E061E7
:107A4000A06910F0010F04BF0120A061206820F0A0
:107A500008002060206820F010002060206820F0DE
:107A600080002060206820F02000206040F21C4050
:107A70002988C2F2000001F0D3FF0020288021688D
:107A800041F001012160216841F008012160216875
:107A900041F010012160216841F0800121602168DE
:107AA00041F02001216040F6A421C2F200010860EB
:107AB00040F69C21C2F200010860B0BD10B545F24D
:107AC000044C48F2000440EA024E002AC4F2000CC2
:107AD000C7F60044DCF8000000EA040040EA0E00AB
