:020000040800F2
:10000000D00E0020790200088B1B0008A116000802
:10001000891B00087F030008E91C0008000000009D
:10002000000000000000000000000000691C000843
:100030001704000800000000BF1B00086B1C00082C
:10004000930200089302000893020008930200083C
:10005000930200089302000893020008930200082C
:10006000930200089302000893020008930200081C
:10007000930200089302000893020008930200080C
:100080009302000800000000930200089302000899
:1000900093020008930200089302000893020008EC
:1000A00093020008930200089302000893020008DC
:1000B000930200089302000893020008A5160008A6
:1000C000A316000893020008930200089302000898
:1000D00093020008930200089302000893020008AC
:1000E000930200089302000893020008930200089C
:1000F0009302000893020008930200080000000029
:1001000000000000930200080000000093020008B5
:100110009302000800000000930200089302000808
:10012000930200089302000893020008930200085B
:100130009302000800000000000000009302000885
:100140009302000893020008000000000000000075
:10015000000000000000000000000000000000009F
:1001600000000000000000000000000093020008F2
:1001700093020008000000000000000000000000E2
:1001800000000000930200080000000000000000D2
:10019000000000000000000000000000000000005F
:1001A0000000000000000000930200089302000815
:1001B0009302000893020008930200080000000068
:1001C0000000000093020008000000000000000092
:1001D000930200089302000800F002F800F03CF8D7
:1001E0000AA090E8000C82448344AAF10107DA4592
:1001F00001D100F031F8AFF2090EBAE80F0013F0A8
:10020000010F18BFFB1A43F001031847381D000007
:10021000581D0000103A24BF78C878C1FAD8520798
:1002200024BF30C830C144BF04680C607047000070
:100230000023002400250026103A28BF78C1FBD8EF
:10024000520728BF30C148BF0B6070471FB501F08F
:100250006BFE1FBD10B510BD00F058F81146FFF73A
:10026000F5FF01F041FE00F076F803B4FFF7F2FF6E
:1002700003BC00F07DF800000948804709480047AA
:10028000FEE7FEE7FEE7FEE7FEE7FEE7FEE7FEE746
:10029000FEE7FEE704480549054A064B70470000A3
:1002A000D91C0008D9010008D0080020D00E002079
:1002B000D00A0020D00A00204FF0000200B51346FB
:1002C00094469646203922BFA0E80C50A0E80C5076
:1002D000B1F12001BFF4F7AF090728BFA0E80C5027
:1002E00048BF0CC05DF804EB890028BF40F8042B20
:1002F00008BF704748BF20F8022B11F0804F18BF8D
:1003000000F8012B7047704770477047754600F042
:100310002BF8AE4605006946534620F00700854697
:1003200018B020B5FFF7B6FFBDE820404FF000063B
:100330004FF000074FF000084FF0000B21F00701CD
:10034000AC46ACE8C009ACE8C009ACE8C009ACE810
:10035000C0098D46704710B50446AFF300802046B3
:10036000BDE81040FFF781BF0048704770080020CB
:1003700001491820ABBEFEE7260002007047FEE7E9
:1003800030B5002308E000BF01EB83040568246852
:100390004FEA34442C605B1CB3EB520FF4D3D2070A
:1003A00003D0026831F8231011800068006830BD66
:1003B00070B500230BE000BF01EB83042568E478EF
:1003C0002DBA25F0FF052543046825605B1CB3EBBF
:1003D000920FF1D394071BD002F00304012C03D138
:1003E000066811F823503570022C05D101EB830407
:1003F0000568248864BA2C80D243920708D101EBA7
:1004000083020368118849BA1980917802681170D3
:100410000068006870BD704772B6FEE7144A117F2D
:100420001448012901D003290FD1036823F4007374
:100430000360036843F400630360036823F400630C
:100440000360036843F400730360022901D00329A9
:100450000BD1016841F480510160016821F48051A1
:100460000160016841F480610160002010777047ED
:100470002000002000200240C107054803D0416948
:1004800041F004014161416941F4803141617047AB
:100490000020024008494A69C0B222F4FC7242EAD4
:1004A000C0004861486940F002004861486940F472
:1004B000803048617047000000200240054910B5B7
:1004C0004C6944F001044C610260BFF36F8F4360DC
:1004D00010BD000000200240094A10B554694023B5
:1004E00044F480245461EFF3108272B610C95B1E8D
:1004F00010C013F0FF03F9D182F3108810BD000083
:100500000020024070B5064600F0FAFA0546134C8A
:1005100007E000BF00F0F4FA401BB04201D903200D
:1005200070BD2069C003F5D420694CF2FA3108404F
:100530000CD00B494A6802434A60810F01D0A1697F
:10054000A161810000D02061012070BD2069C00739
:1005500001D001202061002070BD00000020024079
:1005600020000020F0B5044600201E23012601E0F3
:100570005B1E05D303F01F0706FA07F50D42F7D0FF
:1005800072B1082A0AD0102A05D0182A01D1072BE7
:1005900006D30120F0BD082BFBD201E0102BF8D2CE
:1005A0002368596121688B6823F0180313438B601B
:1005B000F0BD70B5044600200223637723689D6870
:1005C00045F001059D60236A012B0ED0022B10D04F
:1005D000032B11D104E0256851F820302B60401C1A
:1005E0009042F8D32068006806E02046FFF7E0FE5E
:1005F00002E02046FFF7C4FE0121617770BD70B5AF
:10060000040014D0607F022810D002206077206898
:10061000816841F0010181602068416800254560E2
:10062000204600F041F865772577002070BD012055
:1006300070BD000010B5040010D0607F20B900200C
:100640002077204600F03EF802206077207938B10C
:10065000D4E902122046FFF785FF48B1012010BD02
:100660002168104848612068816821F01801816084
:100670006079A0B120692168086120688168626999
:1006800021F060011143816020688168A26921F036
:1006900080011143816001206077002010BD4FF080
:1006A000FF30E8E7B71DC10400680449884204D15F
:1006B0000348816C21F4805181647047003002400E
:1006C0000010024008B500680649884208D1064873
:1006D000816C41F480518164806C00F48050009002
:1006E00008BD00000030024000100240094810B56B
:1006F0004FF0FF31816300228263016402648162F2
:100700008262C162C2620163026300F039FA0020B2
:1007100010BD0000001002402DE9F05F0546314891
:100720008946017801290CD00126804606704FF4D5
:100730007A7B5846FFF7E6FE07004FF0000A03D029
:100740004BE00220BDE8F09F51464046C8F804A0A7
:10075000254C226892050AD52168490505D52168EE
:1007600021F480612160032109E0067708E0226816
:10077000520504D5216821F48061216002210177AE
:100780002868012805D04FF0FF31C9F80010AE6885
:100790001CE06868FFF770FE5846FFF7B3FE074697
:1007A000606920F00400606115E030466968FFF779
:1007B00071FE5846FFF7A6FE0700606920F4FD7041
:1007C000606102D0C9F8006005E0761CD5E902013D
:1007D0000844B042E9D8FFF721FE88F800A0384667
:1007E000B0E7000020000020002002400549012061
:1007F0004A6942F000424A614969002900DA002052
:1008000070470000002002402DE9F0471B4D0446D0
:100810001646287898468A46012809D00120287073
:100820004FF47A794846FFF76DFE002718B119E0BA
:100830000220BDE8F0876F6024B1012C09D0022CA2
:1008400007D00CE0324643465046FFF737FE0124FE
:100850000CE031465046FFF73FFE022C04D04846DC
:10086000FFF750FE2F70E4E74FF480244846FFF76F
:1008700049FE03494A69A2434A61F3E72000002088
:1008800000200240064900204A69002A07DA054A8A
:100890008A60054A8A604969002900DA01207047A8
:1008A0000020024023016745AB89EFCD2DE9F04FD1
:1008B000DFF82092002301260324A9F1040B85B060
:1008C0000F2709F1040AABF1040EFAE006FA03F56A
:1008D0002A407CD091F804C00CF0030CBCF1010F4D
:1008E00002D0BCF1020F26D1D0F808C0CDF800C06C
:1008F0004FEA430C04FA0CF8CDF810C0DDF800C044
:100900002CEA080CCDF800C0D1F80C80DDF810C03E
:1009100008FA0CF8DDF800C048EA0C08C0F80880B6
:10092000D0F804C02CEA050C0D79C5F300159D40E4
:1009300045EA0C0545600D79ED43AD070ED0C5685D
:100940004FEA430804FA08FC25EA0C05D1F808C070
:100950000CFA08FC4CEA050CC0F80CC00D7905F047
:100960000305022D16D1DD0800EB850CCDF808C07B
:10097000DCF820805D074FEAD56C07FA0CF528EA11
:1009800005080D6905FA0CF5DDF808C045EA08050B
:10099000CCF8205005684FEA430CCDF808C004FAA3
:1009A0000CFC25EA0C0591F804C00CF00308DDF8F6
:1009B00008C008FA0CF848EA0508C0F800804D683D
:1009C00015F4403F7CD0444DD5F860C000E077E09E
:1009D0004CF0010CC5F860C02D6E23F0030C05F03F
:1009E000010500953D4D65440295AD684FEA837C55
:1009F0004FEA1C7807FA08FC25EA0C05B0F1904F85
:100A000006D0DFF8DCC0604505D14FF0010C20E0D6
:100A10004FF0000C1DE0DFF8CCC0604502D14FF074
:100A2000020C16E0DFF8C0C0604502D14FF0030CA5
:100A30000FE0DFF8B8C0604502D14FF0040C08E0C9
:100A4000DFF8ACC0604502D14FF0050C01E04FF07B
:100A5000060C0CFA08FC4CEA050C029DC5F808C00F
:100A6000D9F80050CC46D1F8048095435FEAC828F5
:100A700000D51543CCF80050DAF80050D446D1F830
:100A8000048095435FEA882800D51543CCF80050D0
:100A9000DBF80050DC46D1F8048095435FEA8838E3
:100AA00000D51543CCF80050DEF80050F446D1F8DC
:100AB000048095435FEAC83800D51543CCF8005050
:100AC0005B1C0A6832FA03F57FF400AF05B0BDE89D
:100AD000F08F0000080401400010024000000140B7
:100AE0000004004800080048000C004800100048BE
:100AF000001400480AB181617047816270470000AC
:100B00000148806870470000140000200248816896
:100B100042681144816070471400002010B5002421
:100B2000032000F067F80F2000F008F808B1012456
:100B300001E000F027F8204610BD000070B50E4E11
:100B400005460024706898B14FF47A71B1FBF0F05B
:100B50000A490968B1FBF0F000F08EFD40B9102D94
:100B600006D200222946501E00F024F8356000E02D
:100B70000124204670BD0000140000204000002029
:100B8000704700000A4882B0016E41F00101016621
:100B9000016E01F001010091816D41F0805181658C
:100BA000806D00F08050009002B000F093B800001B
:100BB00000100240F0B40E4B1B680C46C3F3022336
:100BC000C3F10705042D00D90425191D072901D2F9
:100BD000002300E0DB1E012606FA05F1491E214034
:100BE00099409E40761E16403143F0BC01F011B989
:100BF0000CED00E0064900F0070208684FF6FF031D
:100C0000184040EA0220034A104308607047000081
:100C10000CED00E00000FA052B492C4B0A6832214C
:100C20004A432B4940B1B0F5007F086829D020F431
:100C3000C06040F480602CE00868C0F341200228C6
:100C400004D051F8800F20F4807022E0D1F88000A9
:100C500020F48070C1F88000086820F4C06040F47F
:100C600000700860B2FBF3F0401C00E0401E4A69CF
:100C7000520501D50028F9D1486940050AD503205D
:100C80007047C0F34120022806D051F8800F40F48D
:100C90008070086000207047D1F8800040F48070B8
:100CA000C1F88000086820F4C06040F4007008605B
:100CB000B2FBF3F0401C00E0401E4A695205DBD550
:100CC0000028F9D1D8E700004000002040420F0082
:100CD000007000400248816841F4804181607047A3
:100CE000007000402DE9F8430446006800269D4D41
:100CF00000035ED5A86D0027C00008D4A86D40F0A1
:100D00008050A865A86D012700F080500090DFF8A2
:100D10005892D9F8001041F48071C9F80010FFF71B
:100D2000EFFE804606E000BFFFF7EAFEA0EB0800FA
:100D300002282BD8D9F80000C005F5D5D5F89000C9
:100D400010F4407014D0216C814211D0D5F890007D
:100D5000D5F8901020F4407041F48031C5F890101F
:100D6000D5F8901021F48031C5F89010C5F89000A6
:100D7000C00711D0FFF7C4FE804641F2883907E072
:100D8000FFF7BEFEA0EB0801494501D903260BE0A1
:100D9000D5F890008007F3D5D5F89000216C20F4A9
:100DA00040700843C5F890001FB1A86D20F0805036
:100DB000A8652078C00707D0D5F88800616820F0C2
:100DC00003000843C5F888002078800707D5D5F8C8
:100DD0008800A16820F00C000843C5F8880020783E
:100DE000400707D5D5F88800E16820F030000843B7
:100DF000C5F888002078000707D5D5F88800216954
:100E000020F0C0000843C5F888002078800607D588
:100E1000D5F88800616920F440600843C5F888006F
:100E20002078400607D5D5F88800A16920F4405005
:100E30000843C5F888002078000607D5D5F8880053
:100E4000E16920F440400843C5F888002088C005C7
:100E500007D5D5F88800216A20F440300843C5F84A
:100E600088002088800507D5D5F88800616A20F4BD
:100E700040200843C5F88800208840050FD5D5F8E4
:100E80008800A16A20F440100843C5F88800A06AD1
:100E9000B0F5801F03D1E86840F48010E860208836
:100EA00000050FD5D5F88800E16A20F4400008431A
:100EB000C5F88800E06AB0F5800F03D1E86840F417
:100EC0008010E8602088C0040FD5D5F88800216B19
:100ED00020F040700843C5F88800206BB0F1807F97
:100EE00003D1E86840F48010E86020884FF000618A
:100EF00080040ED5D5F88800626B20F04060104366
:100F0000C5F88800606B884203D1E86840F480101F
:100F1000E860208840040ED5D5F88800A26B20F048
:100F200040601043C5F88800A06B884203D1E86890
:100F300040F48010E860208800040FD5D5F88800C0
:100F4000E16B20F040500843C5F88800E06BB0F139
:100F5000805F03D1E86840F48030E8603046BDE847
:100F6000F883000000100240007000402DE9F047B7
:100F70000E4605004FF0000725D0DFF8AC81D8F809
:100F8000000000F00F00B0420CD2D8F8001021F0A1
:100F90000F013143C8F80010D8F8000000F00F002E
:100FA000B04210D12968614CC80741F2883A5AD042
:100FB0006868DFF87C91032808D0022820682DD0CB
:100FC000400500282CDB0120BDE8F0872068800167
:100FD000F9D5E06800F00302E068C0F30310401C9C
:100FE000032A19D0534A00BFB2FBF0F0E268C2F303
:100FF00006225043E268C2F34162521C5200B0FB29
:10100000F2F0484517D9A06810F0F00F0CD088070F
:1010100011D5A86840B10EE0474AE5E78003D0E764
:1010200000F0EEF8484506D9A06820F0F00040F046
:101030008000A0608027A068696820F00300084352
:10104000A060FFF75DFD814606E000BFFFF758FD99
:10105000A0EB090151453AD8A068696800F00C007E
:10106000B0EB810FF2D12868810714D5400703D572
:10107000A06840F4E060A0602878000705D5A0686B
:1010800020F4605040F4E060A060A068A96820F0FF
:10109000F000084304E0802F03D1A06820F0F000A6
:1010A000A060D8F80010404601F00F01B14216D9F7
:1010B000016821F00F0131430160FFF721FD074670
:1010C00007E000BFFFF71CFDC11B514501D90320FC
:1010D0007AE7D8F8000000F00F00B042F2D128788B
:1010E000400705D5A068E96820F4E0600843A060E7
:1010F0002878000706D5A068296920F4605040EAE6
:10110000C100A06000F07CF8A1680C4AC1F3031193
:10111000515C01F01F01C840094908600948006896
:10112000BDE8F047FFF70ABD002002400010024072
:1011300000B4C4040024F40000127A00321F000836
:10114000400000201400002070B5FFF7D9FC284CA7
:101150000546206840F48070206004E0FFF7D0FC72
:10116000401B02282FD820684005F7D5606840F062
:1011700080406060FFF7C4FC05460120A06041F29A
:10118000883604E0FFF7BCFC401BB0421BD8A068C7
:10119000C0F381000128F5D11749164808601748A7
:1011A0000068FFF7CBFC08B1012070BD4FF48070E0
:1011B00020602060FFF7A4FC054606E0FFF7A0FCD6
:1011C000401B022801D9032070BD20688001F5D49E
:1011D0004FF48050E0600020A061401E2062D4F8EF
:1011E000940040F40000C4F89400002070BD00009A
:1011F000001002400024F4004000002014000020F1
:10120000184910B58868C0F381021748012A0BD02D
:101210008A684310C2F38102022A06D08A68C2F3A8
:101220008102032A03D0002010BD184610BDCA68F1
:1012300002F00304CA68C2F30312521C032C02D04A
:10124000B0FBF2F001E0B3FBF2F0CA68C968C2F388
:1012500006225043C1F34161491C4900B0FBF1F043
:1012600010BD0000001002400024F4002DE9F843F6
:1012700004007AD02078FA4DC00747D0A868E96802
:1012800000F00C0001F003010C2802D0082817D050
:1012900001E0032914D06068B0F5803F17D0B0F5A5
:1012A000A02F286817D020F480302860286820F408
:1012B000802028606068E0B1FFF722FC064614E059
:1012C0002868800322D560680028D2D01EE02868F4
:1012D00040F48030EDE740F480202860F7E700BF5D
:1012E000FFF70EFC801B642870D828688003F7D5B0
:1012F0000CE0FFF705FC064605E000BFFFF700FC29
:10130000801B6428F0D828688003F7D420788007F1
:101310004CD5A868E96800F00C0001F003010C2826
:1013200002D004280DD001E002290AD0E06800288C
:1013300028682BD040F480702860FFF7E1FB064658
:1013400019E02868400502D5E068002891D0686857
:10135000217C20F0FE4040EA01606860C1480068DE
:10136000FFF7ECFB002800D120E076E1FFF7C8FB97
:10137000801B0228B8D828684005F7D56868217C0A
:1013800020F0FE4040EA016068600FE020F48070C9
:101390002860FFF7B5FB064605E000BFFFF7B0FB8E
:1013A000801B0228A0D828684005F7D420780007C1
:1013B00029D560690028D5F8940013D040F00100C9
:1013C000C5F89400FFF79CFB064606E090E000BFDE
:1013D000FFF796FB801B022886D8D5F8940080077B
:1013E000F6D510E020F00100C5F89400FFF788FB67
:1013F000064604E0FFF784FB801B022878D8D5F866
:1014000094008007F6D42078400761D5A86D0026A7
:10141000C00008D4A86D40F08050A865A86D0126D2
:1014200000F08050009090480168C90511D401680F
:10143000804641F480710160FFF762FB074604E0DB
:10144000FFF75EFBC01B022852D8D8F80000C00589
:10145000F6D5A068012815D00528D5F8900016D03B
:1014600020F00100C5F89000D5F8900020F00400AD
:10147000C5F89000A06841F28838B8B1FFF740FB8A
:1014800007460EE0D5F8900040F00100F0E740F08C
:101490000400C5F89000F5E7FFF732FBC11B41459A
:1014A00026D8D5F890008007F6D50CE0FFF728FB8A
:1014B000074604E0FFF724FBC11B414518D8D5F8C7
:1014C00090008007F6D41EB1A86D20F08050A8656A
:1014D0002078800629D5A0690028D5F8980013D077
:1014E00040F00100C5F89800FFF70AFB064606E049
:1014F00077E000BFFFF704FB801B022877D8D5F800
:1015000098008007F6D510E020F00100C5F898009B
:10151000FFF7F6FA064604E0FFF7F2FA801B02280E
:1015200065D8D5F898008007F6D4E069F0B3A968CB
:10153000C1F38101032961D00228286820F080705E
:1015400028600BD0E86820F00300E860E8684749AD
:101550000840E860FFF7D4FA04464BE0FFF7D0FA02
:10156000064604E0FFF7CCFA801B02283FD8286823
:101570008001F7D4F4E908016FF00F0202EB0111CA
:101580000843218A5204490802EB4151A26841EA0A
:1015900002210843217D4FF07E42490802EB416160
:1015A0000843217B40EAC160E96800E062E0304A1C
:1015B00011400843E860286840F080702860E868BF
:1015C00040F08070E860FFF79BFA044605E000BF3A
:1015D000FFF796FA001B022809D828688001F7D582
:1015E00048E004E0FFF78CFA001B022802D9032030
:1015F000BDE8F88328688001F4D43BE00128F7D0E7
:10160000E868226A00F00301914226D1616A00F085
:10161000F0020901103991421FD1A26A00F4FE4183
:10162000B1EB022F19D194F82C2000F07841B1EBE6
:10163000C26F12D1218E00F4C00249084905A1F5FC
:101640000011914209D194F8341000F0C0604908AB
:101650004906A1F1007181420CD00120C8E70000C9
:10166000001002401400002000700040FFFFEEFE5A
:101670000C809F010020BBE710B5401EB0F1807FB9
:1016800001D3012010BD4FF0E02460610F216017ED
:1016900000F0BFFB0020A06107202061002010BDEA
:1016A000FEE77047F0B52C4C23682C482C4A1E07E7
:1016B0004FF0040504F1040116D50E6846F0080643
:1016C0000E602468E403046805D544F00204046055
:1016D0000324147003E044F00404046015700468EB
:1016E00044F0200404600CE09C070AD45C0708D591
:1016F000194C0C3426681B4F54883E55641C54808A
:1017000015709C064FF0010324D50C6844F02004AA
:101710000C6015780024032D12D0042D0FD15480B5
:101720001370016821F0200101600C49091D0A684D
:1017300042F400420A60016841F008010160F0BD16
:101740000B6843F498730B60016841F00801016075
:101750001470F0BD9380F0BD185400400054004058
:10176000000000204400002010B500F063FB0028BA
:1017700014D00B4C20680B490840B0F1005F0DD12C
:1017800000F01EFA0848046060680849C8600861F3
:10179000216881F30888BDE81040004710BD0000B3
:1017A000002000080000FE2F08ED00E000000020EF
:1017B000044908B5CA6C0243CA64C96C014000916F
:1017C00008BD000000100240F0B50A680F2692FA2A
:1017D000A2F2B2FA82F303248AE001259D402A4056
:1017E0007ED04D68012D01D0022D20D18D688768F3
:1017F00092FAA2FCBCFA8CFC4FEA4C0E04FA0EFCE6
:1018000027EA0C0792FAA2FCBCFA8CFC4FEA4C0CBB
:1018100005FA0CF52F438760CF680D68D0F804C037
:101820002CEA050C7D434CEA050CC0F804C00F6996
:10183000D0F80CC092FAA2F5B5FA85F54FEA450E3C
:1018400004FA0EF52CEA050C92FAA2F5B5FA85F524
:101850006D00AF404CEA070CC0F80CC04D68022D7B
:101860002FD1FF2A15D8D1F814C0056A92FAA2F731
:10187000B7FA87F7BF0006FA07F7BD4392FAA2F757
:10188000B7FA87F7BF000CFA07FC45EA0C050562BA
:1018900017E0D1F814E0476A150A95FAA5FCBCFADE
:1018A0008CFC4FEA8C0C06FA0CFC95FAA5F5B5FAFF
:1018B00085F5AD0027EA0C070EFA05FE47EA0E078C
:1018C00047624D68076892FAA2FCBCFA8CFC4FEAAA
:1018D0004C0C04FA0CFE27EA0E0792FAA2F200E082
:1018E00005E0B2FA82F2520095402F4307605B1C7C
:1018F0000A6832FA03F57FF470AF0020F0BD0000F3
:10190000134B00221349984207D1886B40F4001012
:101910008863886B20F4001014E00F4B984207D1C5
:10192000886B40F480008863886B20F4800009E0B5
:101930000A4B984208D1886B40F080408863886BDE
:1019400020F08040886300E00122104670470000CC
:101950000054004000100240005800400078004051
:1019600010B5026822F001020260D1E90232046877
:1019700043EA022224F4F854144304604A680261E2
:10198000026842F001020260826822F40042826032
:101990008B690A6984681A436FF30A0414438460EC
:1019A0000A691AB1826842F4004282600A680368D8
:1019B00023F44013134303604969426822F4004250
:1019C0000A434260002010BD0C4810B50A4901606E
:1019D00000210171012141718A1E026120224261B0
:1019E000802282610162FEF725FE002803D0BDE857
:1019F0001040FEF711BD10BD003002404C08002021
:101A000010B586B014216846FEF756FC1148C16C2B
:101A100041F00201C164C16C01F002010591C16C89
:101A200041F00101C164C06C0B4C00F00100059055
:101A3000002202212046FFF75DF8022000900120DD
:101A40000021CDE90101039169462046FEF72EFFF2
:101A500006B010BD0010024000040048F0B59FB071
:101A60001C2117A8FEF728FC18216846FEF724FC65
:101A7000442106A8FEF720FC4020002406900C9488
:101A800006A8FFF72FF908B1FEF7C6FC0120FFF703
:101A90008FFE0220FFF78CFE4FF400400226CDE9B6
:101AA000000601250427CDE90457CDE90245694622
:101AB0004FF09040FFF788FE8020CDE90006CDE989
:101AC0000457CDE9024569462948FFF77DFE2948BC
:101AD000416841F4003141602748816D41F40011B3
:101AE0008165806D254D00F400101E90286800224D
:101AF000C0F30220114600F049F801461F2000F013
:101B000078F91F2000F068F928680022C0F302204D
:101B1000114600F03BF80146202000F06AF9202031
:101B200000F05AF9164817A9CDE91740A820CDE9C9
:101B30001A4019941C941D94124C2046FFF710FF74
:101B4000606840F000706060E06840F2FE718843B9
:101B5000E060E06820F40040E060206820F40020AD
:101B60002060206820F4003020601FB0F0BD00002D
:101B70000004004800000140001002400CED00E0AD
:101B8000651E502000540040FEE7FEE730B500F02F
:101B90000703C3F10704042C00D90424181D0728E7
:101BA00001D2002300E0DB1E012505FA04F0401EEF
:101BB000084098409D406D1E1540284330BD704739
:101BC00070B5264C2046FFF79BFE606820F0007041
:101BD0006060206820F001002060206820F008008C
:101BE00020604FF0E02500242C611D48416821F45D
:101BF00080714160416821F480114160416821F0A9
:101C000080614160416821F000614160416821F0DC
:101C100080514160416821F000514160416821F0EC
:101C200080414160416821F000414160611EC5F87A
:101C30008011C5F880128460C46004614461C16988
:101C400041F48071C1610748FEF7D9FCFFF77CFAC7
:101C5000FEF74CFD2C616C61AC6170BD005400401E
:101C6000000001404C0800207047FEF74FBF00B550
:101C700093B038216846FEF71FFB14210EA8FEF72B
:101C80001BFB0020FEF7C8FF0220C1010391402189
:101C900004910121CDE9080100901521CDE90A1038
:101CA00007900C900D906846FFF7E0FA08B172B605
:101CB000FEE70F200E9003200F900020109011904F
:101CC000129004210EA8FFF751F9002801D072B636
:101CD000FEE713B000BD00000248016841F4700146
:101CE0000160704788ED00E0FEE700002DE9F04755
:101CF00086B0DFF8E0904FF0000ACDF810A0D9F8D8
:101D0000011099F8050009BA21F0FF0599F80410AF
:101D100008270D4399F8061005F5006801EB00202F
:101D20000004000C4AD03220FEF7ECFBFEF7AAFDBF
:101D30000028FBD1A5F10060C00A02900120CDF877
:101D400000A003903220FEF7DDFB04A96846FEF7F1
:101D5000E3FC0028F6D12AE009EB070019F8076038
:101D6000417882780C0E46EA012646EA024644EAA9
:101D70001244C278017944EA12240C43417946EABC
:101D8000026644EA01248179C07944EA014444EAC4
:101D900000643220FEF7B6FB324623462946002077
:101DA000FEF732FD0028F4D10837BFB208354545AB
:101DB000D2D3FEF71BFD3220FEF7A4FB00205146D4
:101DC0004A4640F608031154401C9842FBD306B023
:101DD000BDE8F08744000020002809DB00F01F0266
:101DE000012191404009800000F1E020C0F800117D
:101DF00070470907090E002804DB00F1E02080F895
:101E00000014704700F00F0000F1E02080F8141D6E
:101E100070470907090E002804DB00F1E02080F874
:101E20000014704700F00F0000F1E02080F8141D4E
:101E300070470000094810B504680649064A08487A
:101E4000FEF7B7FBC043844201D1012010BD002042
:101E500010BD000000200008FCB70100FCD70108FD
:101E60004C0800201C4C00274FF000454FF0E026A6
:101E7000FEF746FEA168884201D9FFF775FC20787D
:101E80000128F5D1C6F88051BFF34F8FBFF36F8F94
:101E90001248277000786070062802D077280AD18F
:101EA00007E0FEF72DFE0E490844A060FFF71EFF75
:101EB00001E0FFF759FCC6F800510A48016841F0FB
:101EC00008010160016841F001010160016841F011
:101ED00008010160CCE70000000000204400002061
:101EE00020A1070000540040FEF718FEFFF7BFFED8
:101EF000FFF786FDFFF768FDFFF7B0FD08480168B2
:101F000041F001010160016841F008010160FEF744
:101F1000F7FD044900F5FA708860FFF7A3FF0000A1
:101F200000540040000000204FF04070E1EE100A25
:101F300070470000000000000000010203040607D3
:101F400008090000641F0008000000204400000091
:101F500014020008A81F0008440000208C0E000096
:101F60003002000800000000000000000000000037
:101F70000000000000000000100000000100000050
:101F80000000000000000000000000000000000051
:101F90000000000001000000000000000000000040
:081FA000000000000024F40021
:04000005080001D915
:00000001FF
